:020000040800F2
:1000000068080020290200081314000833130008B0
:10001000111400081F040008511700080000000018
:100020000000000000000000000000003D15000876
:100030002104000800000000151400083F15000806
:10004000430200084302000843020008430200087C
:10005000430200084302000843020008430200086C
:10006000430200084302000843020008430200085C
:10007000430200084302000843020008430200084C
:10008000430200084302000843020008430200083C
:10009000430200084302000843020008430200082C
:1000A000430200084302000843020008430200081C
:1000B00043020008E9150008430200084302000853
:1000C00043020008430200084302000843020008FC
:1000D00043020008430200084302000843020008EC
:1000E00043020008430200084302000843020008DC
:1000F00043020008430200084302000843020008CC
:1001000043020008430200084302000843020008BB
:1001100043020008430200084302000843020008AB
:10012000430200084302000843020008430200089B
:10013000430200084302000843020008430200088B
:10014000430200084302000843020008430200087B
:10015000430200084302000843020008430200086B
:10016000430200084302000843020008430200085B
:100170004302000843020008430200080000000098
:10018000430200084302000800F002F800F03CF8C7
:100190000AA090E8000C82448344AAF10107DA45E2
:1001A00001D100F031F8AFF2090EBAE80F0013F0F8
:1001B000010F18BFFB1A43F0010318472417000072
:1001C00044170000103A24BF78C878C1FAD8520703
:1001D00024BF30C830C144BF04680C6070470000C1
:1001E0000023002400250026103A28BF78C1FBD840
:1001F000520728BF30C148BF0B6070471FB501F0E0
:1002000061FB1FBD10B510BD00F0CFF81146FFF720
:10021000F5FF01F045FB00F0EDF803B4FFF7F2FF46
:1002200003BC00F0F5F80000094880470948004782
:10023000FEE7FEE7FEE7FEE7FEE7FEE7FEE7FEE796
:10024000FEE7FEE704480549054A064B70470000F3
:10025000D9150008890100086802002068080020FC
:10026000680400206804002053EA020C00F0698052
:100270002DE9F04B4FF00006002B1FBFB3FA83F5BA
:1002800003FA05F424FA05F65E4012BF1643B2FAEB
:1002900082F502FA05F4C5F120051EBF22FA05FC1D
:1002A00044EA0C04203556EA044C4FEA144418BFC3
:1002B000641C4FF000084FF00009904271EB030CF2
:1002C00039D3002919BFB1FA81F701FA07F6B0FA5C
:1002D00080F700FA07F6C7F120071EBF20FA07FCD7
:1002E00046EA0C062037B6FBF4FCA7EB0507103FE7
:1002F00007F01F0BCBF120060CFA0BFB2CFA06F6CD
:1003000044BFB3460026202FA4BF5E464FF0000B2B
:100310005BEA060C08BF4FF0010B19EB0B09ABFBB6
:10032000027C48EB0608C01B06FB02CC0BFB03CC8F
:1003300071EB0C01C1E70B46024641464846BDE859
:10034000F08B13B54FF000004FF00001AFF30080C9
:10035000BDE81C4070474FF0000200B513469446BC
:100360009646203922BFA0E80C50A0E80C50B1F10D
:100370002001BFF4F7AF090728BFA0E80C5048BF21
:100380000CC05DF804EB890028BF40F8042B08BFBF
:10039000704748BF20F8022B11F0804F18BF00F8BB
:1003A000012B7047704770477047754600F02CF876
:1003B000AE4605006946534620F00700854618B052
:1003C00020B5FFF73FFFBDE820404FF000064FF09B
:1003D00000074FF000084FF0000B21F00701AC467A
:1003E000ACE8C009ACE8C009ACE8C009ACE8C00999
:1003F0008D46704710B50446AFF300802046BDE837
:100400001040FFF70ABF00000048704708020020B4
:1004100001491820ABBEFEE7260002007047FEE748
:100420007047000038B500218DF800100D4900BF5D
:1004300091F85120012AFBD14FF6FF7500F12401FC
:100440002B464FF49072074800F0BAFC00242B466C
:1004500001226946034800F0B3FC641C642CF6DBFF
:1004600038BD00006801002072B6FEE72DE9F84FA4
:10047000DFF8BCA10022012503264FF00F090AF185
:10048000040BAAF1040E00BF0B6805FA02F4234026
:10049000A34270D10F7907F00307012F01D0022F7B
:1004A00016D187684FEA420806FA08FC27EA0C07CB
:1004B000D1F80CC00CFA08FC4CEA070CC0F808C0D4
:1004C0004768A7430C79C4F3001494403C4344604C
:1004D0000C79E443A4070AD0C4684FEA420C06FA38
:1004E0000CF7BC438F6807FA0CF72743C7600C79F9
:1004F00004F00304022C12D1D40800EB840CDCF8C5
:1005000020405707FF0E09FA07F824EA0804D1F83B
:10051000108008FA07F848EA0408CCF8208004683C
:100520004FEA420C06FA0CF7BC430F7907F00307B9
:1005300007FA0CF7274307604C6814F4403F70D06B
:100540003C4C276847F480472760246822F0030763
:1005500004F480440094384C07EB040CDCF80848A1
:1005600097074FEA177809FA08F7BC43334FB842A8
:1005700002D1002724E054E0314FB84201D10127D5
:100580001EE0304FB84201D1022719E02E4FB84289
:1005900001D1032714E02D4FB84201D104270FE009
:1005A0002B4FB84201D105270AE02A4FB84201D1AA
:1005B000062705E0284FB84201D1072700E00827A9
:1005C00007FA08F72743CCF80878DAF800405746CE
:1005D000D1F804C09C435FEACC2C00D51C433C609E
:1005E000DBF800405F46D1F804C09C435FEA8C2CE6
:1005F00000D51C433C60DEF800407746D1F804C0CB
:100600009C435FEA8C3C00D51C433C60084F083F8C
:100610003C68D1F804C09C435FEACC3C00D51C4345
:100620003C60521C102AFFF42FAFBDE8F88F000089
:10063000083C0140443802400030014000000240C4
:100640000004024000080240000C0240001002407A
:100650000014024000180240001C0240014880685B
:10066000704700001400002002488168027811449D
:1006700081607047140000200B4810B5016841F4F8
:1006800000710160016841F480610160016841F41A
:1006900080710160032000F06FF80F2000F006F871
:1006A00000F024F8002010BD003C024070B50D4D54
:1006B00004464FF47A712878B1FBF0F00A490968D2
:1006C000B1FBF0F000F033FC48B9102C07D2002247
:1006D0002146501E00F030F800206C6070BD0120F3
:1006E00070BD000014000020200000200A4808B55A
:1006F000016841F480410160006800F4804000908E
:100700000548001F016841F080510160006800F059
:100710008050009008BD000044380240002809DBEA
:1007200000F01F02012191404009800000F1E0200B
:10073000C0F8001170470000F0B40E4B1B680C4667
:10074000C3F30223C3F10705042D00D90425191DA5
:10075000072901D2002300E0DB1E012606FA05F17D
:10076000491E214099409E40761E16403143F0BC00
:1007700001F041B80CED00E0064900F007020868FE
:100780004FF6FF03184040EA0220034A1043086076
:10079000704700000CED00E00000FA052DE9F0477D
:1007A0000E46050065D0DFF81481D8F80000F7B2D6
:1007B00000F00700B04207D288F80070D8F80000B7
:1007C00000F00700B04254D128683D4C810712D593
:1007D000400703D5206840F4E050206028780007E7
:1007E00003D5206840F4604020602068A96820F0AC
:1007F000F000084320602878C0072DD03049686891
:100800000839012812D0022813D0032811D0096812
:10081000890700292DDA216821F0030101432160B5
:10082000FFF71CFF814641F2883A0EE00968890310
:10083000EFE709688901ECE7FFF710FFA0EB09017A
:10084000514502D90320BDE8F0872068696800F0AF
:100850000C00B0EB810FEFD1D8F80010404601F04A
:100860000701B14207D90770006800F00700B042E5
:1008700001D00120E7E72878400705D52068E9681E
:1008800020F4E050084320602878000706D520684F
:10089000296920F4604040EAC100206000F018F8A7
:1008A0002168084AC1F30311515CC8400649086039
:1008B00006480068FFF7FAFE0020C4E7003C02404B
:1008C00008380240CE180008200000201800002040
:1008D000154810B5006810F00C02144813D04110F0
:1008E000042A0FD0082A0ED10F4C241F2268236837
:1008F00002F03F025B0207D52068C0F38810A0FB1E
:10090000010106E0084610BD2168C1F38811A1FB72
:1009100000010023FFF7A8FC2168C1F30141491C35
:100920004900B0FBF1F010BD083802400024F4008B
:100930002DE9F84F04006ED02078DFF84C93C00703
:10094000A9F104054AD009F104000168C1F381014D
:10095000012908D00068C0F3810002280AD1D9F823
:100960000000400206D52868800337D5606800285B
:10097000E1D033E06068B0F5803F10D0B0F5A02F33
:10098000286810D020F480302860286820F4802067
:1009900028606068A8B1FFF761FE06460DE0286890
:1009A00040F48030F4E740F480202860F7E700BF8F
:1009B000FFF754FE801B642873D828688003F7D59E
:1009C0000CE0FFF74BFE064605E000BFFFF746FED2
:1009D000801B6428F0D828688003F7D42078DFF8DB
:1009E000AC8280074FF0000A3ED5A748001D016881
:1009F00011F00C0F08D00068C0F3810002280BD161
:100A0000D9F80000400207D42868800716D5E068AE
:100A1000012800D112E033E1E068B8B10120C8F844
:100A20000000FFF71BFE064605E000BFFFF716FEBD
:100A3000801B0228C0D828688007F7D5286821695C
:100A400020F0F80040EAC10028600DE0C8F800A0DE
:100A5000FFF704FE064604E0FFF700FE801B0228B5
:100A60001FD828688007F7D42078000722D5864F42
:100A700087486169703771B101210160FFF7EEFDB0
:100A8000064604E0FFF7EAFD801B022809D8386813
:100A90008007F7D50EE0C0F800A0FFF7DFFD06469F
:100AA00005E082E0FFF7DAFD801B02287DD8386878
:100AB0008007F7D42078400768D5DFF8CCB100274D
:100AC0000BF13C0BDBF80000C0000BD4DBF800108E
:100AD00041F08051CBF80010DBF80000012700F056
:100AE000805000906B4E3068C00510D4306840F4E0
:100AF00080703060FFF7B2FD009005E0FFF7AEFDBB
:100B00000099401A022850D83068C005F6D55E4ECC
:100B1000A0686C3601280FD00528306810D020F06E
:100B200001003060306820F004003060A068B8B187
:100B3000FFF794FD00900FE0306840F00100F4E70B
:100B400040F004003060F7E7FFF788FD0099411A94
:100B500041F28830814266D830688007F4D50EE0D3
:100B6000FFF77CFD009007E0FFF778FD0099411A40
:100B700041F28830814256D830688007F4D42FB1D2
:100B8000DBF8001021F08051CBF80010A069C8B349
:100B90003D49091D0968C1F3810102294AD0022893
:100BA000504607D0C8F8600000E03CE0FFF756FD73
:100BB00004463BE04746C8F86000FFF74FFD064695
:100BC00005E000BFFFF74AFD801B02282BD82868EC
:100BD0008001F7D4D4E907010843A16A2E4A4908E5
:100BE00002EB0141626A41EA8211084394F82C1039
:100BF00040EA0161C9F8001001203866FFF72EFDB8
:100C0000044606E03EE000BFFFF728FD001B022877
:100C100009D828688001F7D534E000BFFFF71EFD32
:100C2000001B022802D90320BDE8F88F2868800144
:100C3000F4D427E00128F7D0D9F80000E26900F4E5
:100C4000800191421CD1226A00F03F01914217D1EC
:100C500047F6C071626A0140B1EB821F10D1A26AEF
:100C60004FF0FF3300F4403103EB5202B1EB024F7F
:100C700006D194F82C1000F07060B0EB016F01D039
:100C80000120D1E70020CFE70438024000004742AE
:100C9000800E4742007000400000FFFF70B5040066
:100CA00009D0606A002540B125616561A56294F8AC
:100CB000510040B10CE0012070BD6068B0F5827F4A
:100CC000F4D0E561F2E784F85050204600F044F893
:100CD000022084F851002068016821F04001016081
:100CE000A088218900F4827001F404410843A1899D
:100CF00001F400610843217C01F002010843217DD9
:100D000001F001010843218B01F400710843217FA8
:100D100001F03801084394F8201001F080010843E5
:100D2000218D01F40051084321680860A069042165
:100D300001EA104094F8241001F0100108432168E2
:100D400048602068C16921F40061C16165650120C6
:100D500084F85100002070BD10B586B004461421FF
:100D60006846FFF7F8FA13492068884220D11248F4
:100D70000021026842F480520260006800F4805052
:100D800005900D481438026842F0010202600068C4
:100D900000F001000590A02000900220CDE90101A3
:100DA000032003900520049069460448FFF75EFB8A
:100DB00006B010BD0030014044380240000002403F
:100DC0002DE9F84F044690F8500000269846154645
:100DD0008A4601280CD0012784F85070FFF73EFCAA
:100DE000814694F85100B346012804D002269AE0C7
:100DF0000220BDE8F88FBAF1000F6FD0002D6DD042
:100E0000032084F85100C4F854B0C4F830A0A5867B
:100E1000E586C4F838B0A4F83CB0A4F83EB0C4F8F5
:100E200044B0C4F840B0A068B0F5004F09D12068C4
:100E3000016821F0400101602068016841F48041AF
:100E4000016020680168490603D4016841F040014F
:100E50000160E068B0F5006F606803D058B3012D01
:100E600029D049E008B1012D1FD1206B21680088ED
:100E7000C86006E020688168890709D5216B098868
:100E8000C160206B801C2063E08E401EE0860CE079
:100E9000FFF7E4FBA0EB0901414503D3B8F1FF3FA5
:100EA00003D006E0B8F1000F03D0E08E0028E1D1B6
:100EB00025E0032635E0206B21680078087306E002
:100EC0002068816889070AD5216B09780173206B36
:100ED000401C2063E08E401EE0860DE01FE0FFF71F
:100EE000BDFBA0EB0901414503D3B8F1FF3F03D09F
:100EF000DFE7B8F1000FDCD0E08E0028E0D14A46F1
:100F00004146204600F088FA08B120206065A068BC
:100F100018B92068C16880680090606D08B101262A
:100F200001E084F8517084F850B0304661E710B5A4
:100F3000401EB0F1807F01D3012010BD4FF0E024AE
:100F400060610F21601700F056FC0020A0610720AF
:100F50002061002010BD70477047000070B590F808
:100F60003C20012A32D0012480F83C40022280F843
:100F70003D2003685A689D6822F070060A68324373
:100F80005A60134B02689A4214D0B2F1804F11D0CC
:100F9000104B9A420ED0104B9A420BD00F4B9A42F4
:100FA00008D00F4B9A4205D00E4B9A4202D00E4BFE
:100FB0009A4204D1496825F080031943916080F872
:100FC0003D40002180F83C10084670BD022070BDF5
:100FD000000001400004004000080040000C0040F8
:100FE00000040140004001400018004010B504001A
:100FF00003D094F83D0010B107E0012010BD00209F
:1010000084F83C00204600F01FF8022084F83D00E0
:10101000211D206800F0EEFA012084F8460084F8D3
:101020003E0084F83F0084F8400084F8410084F8D2
:10103000420084F8430084F8440084F8450084F8B2
:101040003D00002010BD000008B500680B49884233
:1010500012D10B48016841F00201016000680022D2
:1010600000F00200009011461D20FFF765FBBDE86F
:1010700008401D20FFF752BB08BD000000040040DF
:101080004038024090F83D10012901D001207047FE
:10109000022180F83D100168CA6842F00102CA606E
:1010A00000681149884214D0B0F1804F11D00F4927
:1010B00088420ED00E4988420BD00E49884208D093
:1010C0000D49884205D00D49884202D00C4988421A
:1010D00004D1816801F00701062903D0016841F0BD
:1010E0000101016000207047000001400004004041
:1010F00000080040000C0040000401400040014096
:101100000018004070B5044690F83C000025012806
:1011100017D0012684F83C60022084F83D00206846
:10112000826822F0770222F47F42826008685028A9
:1011300038D00DDC20284FD005DC90B3102811D119
:101140004AE0022070BD302846D040280AD13BE05A
:1011500060282FD070280DD0B0F5805F03D0B0F597
:10116000005F12D0012584F83D60002084F83C0027
:10117000284670BDCB68D1E90121206800F0A6FAAD
:101180002068816841F0770109E0CB68D1E901214D
:10119000206800F09BFA2068816841F480418160FA
:1011A000E1E719E0CA684968206800F0A1FA502117
:1011B000206806E0CA684968206800F0AAFA602141
:1011C000206800F08DFACEE7CA684968206800F010
:1011D0008FFA40212068F4E7226801461046F0E7C4
:1011E00070472DE9F04104460068C66805694FF074
:1011F0000007A90713D5B10711D5F91E0161012018
:101200002077206880698007204602D0FFF7E8FF3A
:1012100004E000F07EF8204600F07CF827776807AD
:1012200016D5700714D521686FF0040008610220FC
:1012300020772068806910F4407F204602D0FFF7B5
:10124000CFFF04E000F065F8204600F063F8277750
:10125000280715D5300713D521686FF008000861FD
:10126000042020772068C0698007204602D0FFF75D
:10127000B7FF04E000F04DF8204600F04BF8277768
:10128000E80616D5F00614D521686FF01000086145
:10129000082020772068C06910F4407F204602D0E3
:1012A000FFF79EFF04E000F034F8204600F032F82B
:1012B0002777E80708D0F00706D021686FF0010013
:1012C0000861204600F028F8280608D5300606D523
:1012D00021686FF0800008612046FFF73CFE680639
:1012E00008D5700606D521686FF0400008612046D9
:1012F00000F01EF8A8060AD5B00608D521686FF0E0
:10130000200008612046BDE8F041FFF725BEBDE89A
:10131000F0817047704700000349884203D10349B8
:101320000878401C08707047C001002000000020B1
:101330007047FEE7094808B5016841F08001016087
:10134000016801F080010091016841F00101016034
:10135000006800F00100009008BD00003038024035
:10136000104810B50E4901604FF4827141600021B0
:1013700081600122C160C0E9041252028261182218
:10138000C0E90721416281620A21C162FFF786FC40
:10139000002803D0BDE81040FFF766B810BD00007C
:1013A000003001406801002010B586B000241748C5
:1013B00000940194029403940494134905940160E9
:1013C0005321C0E9011440F2E731C0E90314802140
:1013D0008161FFF70BFE08B1FFF746F84FF480502C
:1013E000009069460948FFF78DFE08B1FFF73CF809
:1013F000049404A905480594FFF7B0FD002801D026
:10140000FFF732F806B010BD00040040C001002014
:10141000FEE7FEE770470000F8B515460E460B469E
:10142000009204460122022100F02CF8A0B91348D2
:1014300013490068B0FBF1F04FF47A714843009013
:101440006068B0F5827F0DD13346002280212046AE
:10145000009500F017F870B1606D40F020006065F5
:101460000320F8BD009830B1401E009020688068CD
:10147000C0430006F6D50020F8BD00002000002083
:1014800000366E012DE9F8431E4691468846044613
:10149000089DFFF7E3F8401B351AFFF7DFF8074612
:1014A00025480068C0F3CB30684338E0701C37D063
:1014B000FFF7D4F8C01BA84203D215B1009860B35F
:1014C0002CE02068416821F0E00141606068B0F5DF
:1014D000827F0BD1A068B0F5004F02D0B0F5806FCD
:1014E00004D12068016821F040010160A06AB0F5D4
:1014F000005F09D12068016821F400510160206873
:10150000016841F400510160012084F8510000207D
:1015100084F850000320BDE8F8830025401E0090A9
:101520002068816838EA010004D000214945BDD116
:101530000020F0E70121F9E7200000207047FFF7C5
:1015400093B8000030B593B030216846FEF703FF32
:1015500014210CA8FEF7FFFE1D480025016841F08C
:1015600080510160006800F08050119019480168B6
:1015700041F4804101600068022400F48040119031
:101580000120039010200490009406940820CDE9D7
:101590000750A820CDE9090404200B906846FFF706
:1015A000C7F908B172B6FEE70CA90F2081E8310037
:1015B0004FF4A0500F904FF48050109005210CA8CC
:1015C000FFF7ECF8002801D072B6FEE713B030BD8B
:1015D00040380240007000400248016841F4700148
:1015E0000160704788ED00E00148FFF7FABD000098
:1015F000C0010020F0B50268294C2A4D2A4E2B4F1D
:101600002B4B4FF0804CA04209D0604507D0A84238
:1016100005D0B04203D0B84201D0984204D122F0A4
:10162000700E4A6842EA0E02A0421BD0604519D0F3
:10163000A84217D0B04215D0B84213D0984211D06A
:101640001C4DA8420ED01C4DA8420BD01B4DA842E9
:1016500008D01B4DA84205D01A4DA84202D01A4D01
:10166000A84203D122F44075CA682A434D6922F08A
:1016700080022A4302608A68C2620A688262A042CB
:1016800001D0984201D109690163012141610169D9
:10169000C90703D0016921F001010161F0BD00001B
:1016A000000001400004004000080040000C004021
:1016B0000004014000400140004401400048014056
:1016C00000180040001C00400020004010B5846855
:1016D00042EA032224F47F440A432243826010BD7D
:1016E000826822F070020A4342F00701816070476D
:1016F00010B5036A046A24F001040462846924F0CA
:10170000F00444EA021423F00A020A4384610262EC
:1017100010BD10B5036A046A24F0100404628469E1
:1017200023F0A00324F4704444EA023243EA011196
:101730008261016210BD0000044C0025207832282F
:10174000FCD300F09FF82570F8E7000000000020AF
:10175000FEE7F0B5002303EBC3011A4600EB810757
:10176000002102EB4206BD1903EB430C6C78CC4020
:10177000E40701D0FC2400E0C0244FEA540EC1EB82
:10178000CC04044484F82BE017F806E02EFA01FE9E
:101790005FEACE7E02D04FF0FC0E01E04FF0C00EAB
:1017A0004FEA5E0E84F833E095F802E02EFA01FE6F
:1017B0005FEACE7E02D04FF0FC0E01E04FF0C00E8B
:1017C0004FEA5E0E491C84F83BE00829CEDB521C30
:1017D0005B1C0C2AC4DBF0BD30B501EBC10100EB92
:1017E0008100DDE9034502EB4201084400F8273D92
:1017F0004470857030BD0907090E002804DB00F134
:10180000E02080F80014704700F00F0000F1E020A5
:1018100080F8141D704700001CB5194CE27AA17ABB
:10182000CDE90012637A227A0121FFF7D5FFE07A31
:10183000C82806D3A17A09B1891EA172617A891CD0
:101840006172617AC82905D3A27A921CA27208B18A
:10185000801EE072A07AC82805D309B1891E617282
:10186000E07A801CE072207A401CC0B220720C2802
:1018700001D9012002E0012801D1002020721CBD05
:101880000100002010B50548FFF7C6FF0348FFF729
:1018900060FFBDE810400148FEF7C4BD24000020F1
:1018A000FEF7EAFEFFF74EFEFFF744FDFFF758FD97
:1018B000FFF77AFD0248FFF7E5FBFFF73DFFFEE784
:1018C000C00100204FF04070E1EE100A70470000A8
:1018D00000000000000001020304060708090000E0
:1018E000001900080000002024000000C4010008C6
:1018F000241900082400002044080000E00100082A
:10190000000000C80101010101010000C8010D0132
:101910000000C800010000001000000000000000EE
:041920000024F400AB
:040000050800018965
:00000001FF
