:020000040800F2
:10000000D022002031020008E31D00088B1C0008EC
:10001000E11D000813070008652200080000000029
:100020000000000000000000000000004120000867
:100030003908000800000000E51D00084320000802
:100040004B0200084B0200084B0200084B0200085C
:100050004B0200084B0200084B0200084B0200084C
:100060004B0200084B0200084B0200084B0200083C
:100070004B0200084B0200084B0200084B0200082C
:100080004B0200084B0200084B0200084B0200081C
:100090004B0200084B0200084B0200084B0200080C
:1000A0004B0200084B0200084B0200084B020008FC
:1000B0004B020008F12000084B0200084B02000828
:1000C0004B0200084B0200084B0200084B020008DC
:1000D0004B0200084B0200084B0200084B020008CC
:1000E0004B0200084B0200084B0200084B020008BC
:1000F0004B0200084B0200084B0200084B020008AC
:100100004B0200084B0200084B0200084B0200089B
:100110004B0200084B0200084B0200084B0200088B
:100120004B0200084B0200084B0200088907000838
:100130004B0200084B0200084B0200084B0200086B
:100140004B0200084B0200084B0200084B0200085B
:100150004B0200084B0200084B0200084B0200084B
:100160004B0200084B0200084B0200084B0200083B
:100170004B0200084B0200084B0200080000000080
:100180004B0200084B02000800F002F800F041F8B2
:100190000AA090E8000C82448344AAF10107DA45E2
:1001A00001D100F036F8AFF2090EBAE80F0013F0F3
:1001B000010F18BFFB1A43F001031847143E00005B
:1001C000343E0000103A24BF78C878C1FAD85207EC
:1001D00024BF30C830C144BF04680C6070470000C1
:1001E0000023002400250026103A28BF78C1FBD840
:1001F000520728BF30C148BF0B607047642900F028
:10020000EB80002070471FB503F0D1FE1FBD10B575
:1002100010BD00F044FA1146FFF7F5FF03F03EFE73
:1002200000F062FA03B4FFF7F2FF03BC00F06AFAD1
:100230000948804709480047FEE7FEE7FEE7FEE77A
:10024000FEE7FEE7FEE7FEE7FEE7FEE704480549B6
:10025000054A064B70470000E120000889010008AC
:10026000D01C0020D0220020D01E0020D01E002054
:1002700053EA020C00F069802DE9F04B4FF00006C4
:10028000002B1FBFB3FA83F503FA05F424FA05F631
:100290005E4012BF1643B2FA82F502FA05F4C5F1C8
:1002A00020051EBF22FA05FC44EA0C04203556EA5C
:1002B000044C4FEA144418BF641C4FF000084FF080
:1002C0000009904271EB030C39D3002919BFB1FA30
:1002D00081F701FA07F6B0FA80F700FA07F6C7F1DE
:1002E00020071EBF20FA07FC46EA0C062037B6FBA3
:1002F000F4FCA7EB0507103F07F01F0BCBF120061E
:100300000CFA0BFB2CFA06F644BFB3460026202F4E
:10031000A4BF5E464FF0000B5BEA060C08BF4FF02F
:10032000010B19EB0B09ABFB027C48EB0608C01B69
:1003300006FB02CC0BFB03CC71EB0C01C1E70B46B7
:10034000024641464846BDE8F08B13B54FF0000029
:100350004FF00001AFF30080BDE81C407047000083
:100360000FB41CB5074B06AA7B446946009005985C
:1003700000F07DF90020694600F08CF91CBC5DF8A6
:1003800014FB00002903000070B50446856900686D
:10039000C10601D5302600E02026C00707D070BD79
:1003A000D4E9012130469047206A401C20626D1E2E
:1003B000F6D570BD70B5044685690078C00707D1D1
:1003C00070BDD4E9012120209047206A401C2062A2
:1003D0006D1EF6D570BD00002DE9F04106460024E3
:1003E00010687529314616A510D0AFF3008000289B
:1003F00002DA404213A507E031688A0701D512A549
:1004000002E0490704D511A5012401E0AFF3008003
:1004100000210A2206F1240709E0B0FBF2FCB0FB40
:10042000F2F302FB1C00303078541846491C0028B7
:10043000F3D123462A463046BDE8F04100F0B9B872
:10044000000000002D0000002B0000002000000034
:100450002DE9F0474FF0000A89460446C0F820A075
:100460002046E1688847002876D0252806D0D4E9C0
:1004700001219047206A401C2062F1E7E168204694
:1004800000258847C4F81CA006460027C4F818A019
:100490002A2E09D0304603F08AFB38B304EB8708D4
:1004A000303EC8F8186019E059F8041B204604EBE8
:1004B00087029161E1688847012F064618D1E069FB
:1004C000002820DA25F020051DE0D8F8180000EB00
:1004D000800006EB40003038C8F818002046E1687C
:1004E0008847064603F063FB0028EED1012F0AD0AF
:1004F0002E2E08D12046E16888477F1C0646022F31
:1005000045F02005C4DBA069002803DA404245F02D
:100510000105A061E80701D025F01005B6B1A6F1EC
:100520004100192802D8203645F400654A46314674
:10053000204625604D46FFF761FE58B1012806D0E0
:10054000ED1D25F0070000F1080989E704E005F139
:10055000040985E730468AE7206ABDE8F0874FF056
:10056000000200B5134694469646203922BFA0E803
:100570000C50A0E80C50B1F12001BFF4F7AF09070F
:1005800028BFA0E80C5048BF0CC05DF804EB890000
:1005900028BF40F8042B08BF704748BF20F8022B43
:1005A00011F0804F18BF00F8012B7047704770475B
:1005B00070472DE9F0470D4699469246044600F1F2
:1005C00024080168880604D5E06921F01001216043
:1005D00000E00120A84201DD471B00E00027A169DF
:1005E0007A1902EB0900081AA0612078C00602D42B
:1005F0002046FFF7C9FE002608E0D4E901211AF8D9
:1006000006009047206A401C761C20624E45F4DBB1
:100610002078C0060AD52046FFF7B6FE06E0D4E9EA
:10062000012130209047206A401C2062381EA7F12B
:100630000107F4DC07E0D4E9012118F80500904730
:10064000206A401C2062281EA5F10105F3DC20462B
:10065000FFF7B0FE2078000602D50220BDE8F08743
:100660000120FBE701694A1C02610878704700B568
:100670008FB0CDE901310021059105497944CDE9DB
:10068000031011466846FFF7E3FE0FB000BD0000FF
:10069000E5FFFFFF0A6802F8010B0A607047754624
:1006A00000F02CF8AE4605006946534620F00700DE
:1006B000854618B020B5FFF7C9FDBDE820404FF0D2
:1006C00000064FF000074FF000084FF0000B21F03C
:1006D0000701AC46ACE8C009ACE8C009ACE8C00909
:1006E000ACE8C0098D46704710B50446AFF30080F2
:1006F0002046BDE81040FFF795BD00000048704758
:100700006C1C002001491820ABBEFEE72600020049
:100710007047FEE7194910B5087805281ED3481C14
:100720008278962A06D343780BB19B1E43700378D8
:100730009B1C03700378962B05D34478A41C44704B
:100740000AB1921E82704278962A05D30BB19B1E85
:1007500003708278921C827000200870C0B2401C26
:10076000087000220649074800F0C2FE0349002233
:10077000BDE81040091D034800F098BE1400002099
:10078000380300204C1B0020014800F067B800002F
:10079000C41B002001681823CAB2103AB2FBF3F25E
:1007A000054B6FF30901032A9B5CC36500D9091D42
:1007B0008165084670470000B83F000810B5014643
:1007C00000208B698A6A4FF0C07453B1B3F5005FA3
:1007D00015D072B1012A0CD0022A0AD0032A09D1FD
:1007E00004E01AB1012A06D0022A03D1C96AC9015C
:1007F00000D5012010BDC96AA142FAD010BD002A5F
:10080000F7D0012AF2D0022AF3D0032AF3D010BD88
:1008100030B50468256825F4802525600468636088
:100820008368402B036803D099600068C26030BDC4
:100830009A600068C16030BD70470000054900BF84
:1008400091F85120012AFBD101464FF4C0520148D2
:1008500000F0AEBF6C1B002072B6FEE72DE9F84336
:1008600004464FF00009CDF8009063484FF416514C
:10087000A56D0068B0FBF1F72E6894F85C100820B5
:1008800000FA01F131420FD021680A6852070BD5F6
:100890000A6822F004020A6094F85C108840A8609C
:1008A000606D40F00100606594F85C104FF0010845
:1008B00008FA01F0304208D021684969090604D5D8
:1008C000A860606D40F00200606594F85C10042040
:1008D0008840304208D021680968890704D5A8609B
:1008E000606D40F00400606594F85C101020884052
:1008F000304218D021680968090714D5A86020681B
:100900000168490304D50068000308D5A16C07E01D
:100910000168C90503D4016821F008010160216C58
:1009200009B12046884794F85C1020208840304266
:1009300031D021680968C9062DD5A86094F8350022
:1009400005282068016806D0490347D500680003E0
:100950001DD4616C1CE021F0160101602068416922
:1009600021F080014161206C08B9A06C20B12068A1
:10097000016821F00801016094F85C103F20884074
:10098000A86084F8358084F83490216D1FE0E16B15
:1009900009B120468847606D00282BD0606DC007E4
:1009A00014D0052084F835002068016821F0010189
:1009B00001600098401C0090B84203D8206800688D
:1009C000C007F6D184F8358084F83490E16C0029B2
:1009D00010D001B02046BDE8F04308470168C905C2
:1009E000D5D4016821F01001016084F8358084F8C5
:1009F0003490CCE7BDE8F883280000202DE9F041D1
:100A0000044600F095F906465CB1022084F83500F2
:100A1000002584F834502068016821F0010101604C
:100A20000DE00120BDE8F08100F082F9801B05286F
:100A300005D920206065032084F83500F2E720689E
:100A40000068C007F0D12268116820480140D4E94D
:100A500001031843D4E90336334318436369184349
:100A6000A3691843E3691843236A18430843616A7A
:100A7000042903D1D4E90B131943084310602068FB
:100A80004069666A20F0070130460E4301270428BA
:100A90000CD1A06A0643E06A40B12046FFF78EFE03
:100AA00020B14020606584F83570BAE7206846615F
:100AB0002046FFF76FFE94F85C203F219140816053
:100AC000656584F835700020ACE700003F8010F0C9
:100AD0002DE9F0410446866D90F834000025012888
:100AE0000DD0012084F8340094F835700020012FD7
:100AF00007D084F8340002252846BDE8F0810220A2
:100B0000FBE7022784F8357060652046FFF780FE1A
:100B100094F85C103F208840B0602068016841F084
:100B200016010160206C20B12068016841F00801C5
:100B300001602068016841F001010160DCE700000C
:100B40002DE9F84FDFF8BCA10022012503264FF064
:100B50000F090AF1040BAAF1040E00BF0B6805FA95
:100B600002F42340A34270D10F7907F00307012F4D
:100B700001D0022F16D187684FEA420806FA08FC16
:100B800027EA0C07D1F80CC00CFA08FC4CEA070C59
:100B9000C0F808C04768A7430C79C4F30014944018
:100BA0003C4344600C79E443A4070AD0C4684FEA8C
:100BB000420C06FA0CF7BC438F6807FA0CF7274380
:100BC000C7600C7904F00304022C12D1D40800EBA6
:100BD000840CDCF820405707FF0E09FA07F824EAD6
:100BE0000804D1F8108008FA07F848EA0408CCF89D
:100BF000208004684FEA420C06FA0CF7BC430F79D8
:100C000007F0030707FA0CF7274307604C6814F452
:100C1000403F70D03C4C276847F4804727602468E9
:100C200022F0030704F480440094384C07EB040CD2
:100C3000DCF8084897074FEA177809FA08F7BC4329
:100C4000334FB84202D1002724E054E0314FB8427C
:100C500001D101271EE0304FB84201D1022719E02F
:100C60002E4FB84201D1032714E02D4FB84201D1D5
:100C700004270FE02B4FB84201D105270AE02A4F85
:100C8000B84201D1062705E0284FB84201D1072715
:100C900000E0082707FA08F72743CCF80878DAF8C5
:100CA00000405746D1F804C09C435FEACC2C00D5E5
:100CB0001C433C60DBF800405F46D1F804C09C4315
:100CC0005FEA8C2C00D51C433C60DEF80040774680
:100CD000D1F804C09C435FEA8C3C00D51C433C60C7
:100CE000084F083F3C68D1F804C09C435FEACC3C05
:100CF00000D51C433C60521C102AFFF42FAFBDE806
:100D0000F88F0000083C01404438024000300140A8
:100D1000000002400004024000080240000C0240B3
:100D2000001002400014024000180240001C024063
:100D300001488068704700001C000020024881685C
:100D400002781144816070471C0000200B4810B5E8
:100D5000016841F400710160016841F48061016043
:100D6000016841F480710160032000F06FF80F20EA
:100D700000F006F800F024F8002010BD003C02400E
:100D800070B50D4D04464FF47A712878B1FBF0F040
:100D90000A490968B1FBF0F000F072FD48B9102C67
:100DA00007D200222146501E00F030F800206C606F
:100DB00070BD012070BD00001C0000202800002034
:100DC0000A4808B5016841F480410160006800F4F8
:100DD000804000900548001F016841F0805101608B
:100DE000006800F08050009008BD000044380240C8
:100DF000002809DB00F01F0201219140400980001A
:100E000000F1E020C0F8001170470000F0B40E4B74
:100E10001B680C46C3F30223C3F10705042D00D958
:100E20000425191D072901D2002300E0DB1E01263D
:100E300006FA05F1491E214099409E40761E164053
:100E40003143F0BC02F0A3BE0CED00E0064900F017
:100E5000070208684FF6FF03184040EA0220034AE1
:100E600010430860704700000CED00E00000FA0538
:100E70002DE9F843054600684FF00109C1074FF01E
:100E8000000601D1400727D5DFF80C81C8F868605B
:100E9000FFF74EFF0746414C05E000BFFFF748FF54
:100EA000C01B022857D820680001F7D46868810168
:100EB000287A41EA0070394984310860C8F868909E
:100EC000FFF736FF074604E0FFF732FFC01B02289A
:100ED00041D820680001F7D52878800752D52F48DF
:100EE0004030016841F08051016000682C4C00F0F6
:100EF00080500090206840F480702060FFF718FF59
:100F0000074604E0FFF714FFC01B022823D820681F
:100F1000C005F7D5214C7034206810F4407020D003
:100F2000A98901F4407181421BD020681D4920F439
:100F30004070C1F800900E6020602068C00710D09B
:100F4000FFF7F6FE064641F2883707E0FFF7F0FEAE
:100F5000801BB84202D90320BDE8F88320688007CF
:100F6000F4D5E9680D48C1F301220830032A0BD0FB
:100F7000016821F4F81101602068A989C1F30B010F
:100F8000084320600020E7E70268074B22F4F812CC
:100F900019400A430260EFE7000047420038024070
:100FA00000700040400E4742FFFCFF0F2DE9F04764
:100FB0000E46050065D0DFF81481D8F80000F7B2BE
:100FC00000F00700B04207D288F80070D8F800009F
:100FD00000F00700B04254D128683D4C810712D57B
:100FE000400703D5206840F4E050206028780007CF
:100FF00003D5206840F4604020602068A96820F094
:10100000F000084320602878C0072DD03049686878
:101010000839012812D0022813D0032811D00968FA
:10102000890700292DDA216821F00301014321609D
:10103000FFF77EFE814641F2883A0EE00968890397
:10104000EFE709688901ECE7FFF772FEA0EB090101
:10105000514502D90320BDE8F0872068696800F097
:101060000C00B0EB810FEFD1D8F80010404601F032
:101070000701B14207D90770006800F00700B042CD
:1010800001D00120E7E72878400705D52068E96806
:1010900020F4E050084320602878000706D5206837
:1010A000296920F4604040EAC100206000F018F88F
:1010B0002168084AC1F30311515CC8400649086021
:1010C00006480068FFF75CFE0020C4E7003C0240D1
:1010D00008380240C03F00082800002020000020FF
:1010E000154810B5006810F00C02144813D04110D8
:1010F000042A0FD0082A0ED10F4C241F226823681F
:1011000002F03F025B0207D52068C0F38810A0FB05
:10111000010106E0084610BD2168C1F38811A1FB5A
:1011200000010023FFF7A4F82168C1F30141491C25
:101130004900B0FBF1F010BD083802400024F40073
:101140002DE9F84F04006ED02078DFF84C93C007EB
:10115000A9F104054AD009F104000168C1F3810135
:10116000012908D00068C0F3810002280AD1D9F80B
:101170000000400206D52868800337D56068002843
:10118000E1D033E06068B0F5803F10D0B0F5A02F1B
:10119000286810D020F480302860286820F480204F
:1011A00028606068A8B1FFF7C3FD06460DE0286817
:1011B00040F48030F4E740F480202860F7E700BF77
:1011C000FFF7B6FD801B642873D828688003F7D525
:1011D0000CE0FFF7ADFD064605E000BFFFF7A8FDF8
:1011E000801B6428F0D828688003F7D42078DFF8C3
:1011F000AC8280074FF0000A3ED5A748001D016869
:1012000011F00C0F08D00068C0F3810002280BD148
:10121000D9F80000400207D42868800716D5E06896
:10122000012800D112E033E1E068B8B10120C8F82C
:101230000000FFF77DFD064605E000BFFFF778FDE3
:10124000801B0228C0D828688007F7D52868216944
:1012500020F0F80040EAC10028600DE0C8F800A0C6
:10126000FFF766FD064604E0FFF762FD801B0228DB
:101270001FD828688007F7D42078000722D5864F2A
:1012800087486169703771B101210160FFF750FD36
:10129000064604E0FFF74CFD801B022809D8386899
:1012A0008007F7D50EE0C0F800A0FFF741FD064625
:1012B00005E082E0FFF73CFD801B02287DD83868FE
:1012C0008007F7D42078400768D5DFF8CCB1002735
:1012D0000BF13C0BDBF80000C0000BD4DBF8001076
:1012E00041F08051CBF80010DBF80000012700F03E
:1012F000805000906B4E3068C00510D4306840F4C8
:1013000080703060FFF714FD009005E0FFF710FDDE
:101310000099401A022850D83068C005F6D55E4EB4
:10132000A0686C3601280FD00528306810D020F056
:1013300001003060306820F004003060A068B8B16F
:10134000FFF7F6FC00900FE0306840F00100F4E792
:1013500040F004003060F7E7FFF7EAFC0099411A1B
:1013600041F28830814266D830688007F4D50EE0BB
:10137000FFF7DEFC009007E0FFF7DAFC0099411A66
:1013800041F28830814256D830688007F4D42FB1BA
:10139000DBF8001021F08051CBF80010A069C8B331
:1013A0003D49091D0968C1F3810102294AD002287B
:1013B000504607D0C8F8600000E03CE0FFF7B8FCFA
:1013C00004463BE04746C8F86000FFF7B1FC06461C
:1013D00005E000BFFFF7ACFC801B02282BD8286873
:1013E0008001F7D4D4E907010843A16A2E4A4908CD
:1013F00002EB0141626A41EA8211084394F82C1021
:1014000040EA0161C9F8001001203866FFF790FC3E
:10141000044606E03EE000BFFFF78AFC001B0228FE
:1014200009D828688001F7D534E000BFFFF780FCB9
:10143000001B022802D90320BDE8F88F286880012C
:10144000F4D427E00128F7D0D9F80000E26900F4CD
:10145000800191421CD1226A00F03F01914217D1D4
:1014600047F6C071626A0140B1EB821F10D1A26AD7
:101470004FF0FF3300F4403103EB5202B1EB024F67
:1014800006D194F82C1000F07060B0EB016F01D021
:101490000120D1E70020CFE7043802400000474296
:1014A000800E4742007000400000FFFF10B500684A
:1014B0000B4641680D480140080CD870C1F3042464
:1014C0005C7001F03F049C70C1F34231197052B955
:1014D00000F098FCD870587800F094FC5870987818
:1014E00000F090FC9870002010BD00003FFFFF004E
:1014F00010B50B460168896A596001680969C1F332
:101500000E019960006801680D480140C1F3054073
:101510001870C1F306245C7001F07F049C70890D83
:10152000D97052B900F06EFC1870587800F06AFC5F
:101530005870987800F066FC9870002010BD00008C
:101540007F7F7F0010B5040002D0607F10B106E0FD
:10155000012010BD00202077204600F041F8022035
:1015600060772068C168C943C90632D5CA21416283
:10157000216853204862204600F04EFC20BB2068C2
:101580008168164A1140816021688868626810434A
:10159000D4E904231A43104388602168E068086195
:1015A00020680169228941EA02410161204600F078
:1015B00057FC48B921680A6C22F480220A64216829
:1015C0000A6CA3691A430A642268FF21516208B1B8
:1015D00010BD00200121617710BD0000BFFF8FFF0B
:1015E0001FB5002100910191029103910068084903
:1015F00088420CD102200090C00103906846FFF79A
:1016000037FC08B1FFF728F90249012008601FBD27
:10161000002800403C0E474270B504460B48216844
:10162000C860FFF785FB05464FF47A7607E000BFF8
:10163000FFF77EFB401BB04201D9032070BD20683C
:10164000C0688006F4D5002070BD00005F7F0100F7
:10165000704770B5040009D0606A002540B125616B
:101660006561A56294F8510040B10CE0012070BDA5
:101670006068B0F5827FF4D0E561F2E784F85050FD
:10168000204600F045F8022084F8510020680168E7
:1016900021F040010160A088218900F4827001F4EA
:1016A00004410843A18901F400610843217C01F051
:1016B00002010843217D01F001010843218B01F45F
:1016C00000710843217F01F03801084394F820108D
:1016D00001F080010843218D01F400510843216885
:1016E0000860A069042101EA104094F8241001F078
:1016F00010010843216848602068C16921F4006135
:10170000C1616565012084F85100002070BD0000B2
:1017100070B586B0064614216846FEF720FF1F49C3
:101720003068884238D11E480025016841F4805154
:101730000160006800F48050059019481438016871
:1017400041F0010101600068694600F00100059068
:10175000A02000900220CDE9010503200390052080
:1017600004901048FFF7ECF9104C0F4820604FF040
:10177000C06060604020C4E902050001C4E90405BE
:10178000A561E561256220466562FFF737F908B17A
:10179000FFF762F8B464A66306B070BD0030014084
:1017A000443802400000024058640240C41B00203C
:1017B00070B5044690F850000026012809D0012099
:1017C00084F8500094F851000025012803D0022627
:1017D0004AE0022070BD89B182B1032084F8510033
:1017E00065652163A286E286A56365642564A58795
:1017F000E587A068B0F5004F02D00BE0012633E08A
:101800002068016821F0400101602068016841F40E
:1018100080410160A16C16480864A16C1548C8633A
:10182000A16C1548C864A06C0565E38E2268216B25
:101830000C32A06CFFF74CF920B1606D40F0100045
:101840006065DBE720680168490603D4016841F060
:10185000400101602068416841F02001416020683A
:10186000416841F00201416084F85050304670BD3B
:10187000AD1E0008B71E00088B1E00087047704799
:1018800010B5401EB0F1807F01D3012010BD4FF094
:10189000E02460610F21601702F079F90020A06157
:1018A00007202061002010BD7047704770B590F888
:1018B0003C20012A32D0012480F83C40022280F8EA
:1018C0003D2003685A689D6822F070060A6832431A
:1018D0005A60134B02689A4214D0B2F1804F11D073
:1018E000104B9A420ED0104B9A420BD00F4B9A429B
:1018F00008D00F4B9A4205D00E4B9A4202D00E4BA5
:101900009A4204D1496825F080031943916080F818
:101910003D40002180F83C10084670BD022070BD9B
:10192000000001400004004000080040000C00409E
:1019300000040140004001400018004010B50400C0
:1019400003D094F83D0010B107E0012010BD002045
:1019500084F83C00204600F01FF8022084F83D0087
:10196000211D206800F0CAFB012084F8460084F89D
:101970003E0084F83F0084F8400084F8410084F879
:10198000420084F8430084F8440084F8450084F859
:101990003D00002010BD000008B500680B498842DA
:1019A00012D10B48016841F0020101600068002279
:1019B00000F00200009011461D20FFF727FABDE855
:1019C00008401D20FFF714BA08BD000000040040C5
:1019D0004038024090F83D10012901D001207047A5
:1019E000022180F83D100168CA6842F00102CA6015
:1019F00000681149884214D0B0F1804F11D00F49CE
:101A000088420ED00E4988420BD00E49884208D039
:101A10000D49884205D00D49884202D00C498842C0
:101A200004D1816801F00701062903D0016841F063
:101A300001010160002070470000014000040040E7
:101A400000080040000C004000040140004001403C
:101A50000018004070B5044690F83C0000250128AD
:101A600017D0012684F83C60022084F83D002068ED
:101A7000826822F0770222F47F4282600868502850
:101A800038D00DDC20284FD005DC90B3102811D1C0
:101A90004AE0022070BD302846D040280AD13BE001
:101AA00060282FD070280DD0B0F5805F03D0B0F53E
:101AB000005F12D0012584F83D60002084F83C00CE
:101AC000284670BDCB68D1E90121206800F082FB77
:101AD0002068816841F0770109E0CB68D1E90121F4
:101AE000206800F077FB2068816841F480418160C4
:101AF000E1E719E0CA684968206800F07DFB5021E1
:101B0000206806E0CA684968206800F086FB60210A
:101B1000206800F069FBCEE7CA684968206800F0D9
:101B20006BFB40212068F4E7226801461046F0E78D
:101B300070472DE9F04104460068C66805694FF01A
:101B40000007A90713D5B10711D5F91E01610120BE
:101B50002077206880698007204602D0FFF7E8FFE1
:101B600004E000F07EF8204600F07CF82777680754
:101B700016D5700714D521686FF0040008610220A3
:101B800020772068806910F4407F204602D0FFF75C
:101B9000CFFF04E000F065F8204600F063F82777F7
:101BA000280715D5300713D521686FF008000861A4
:101BB000042020772068C0698007204602D0FFF704
:101BC000B7FF04E000F04DF8204600F04BF827770F
:101BD000E80616D5F00614D521686FF010000861EC
:101BE000082020772068C06910F4407F204602D08A
:101BF000FFF79EFF04E000F034F8204600F032F8D2
:101C00002777E80708D0F00706D021686FF00100B9
:101C10000861204600F028F8280608D5300606D5C9
:101C200021686FF0800008612046FFF73DFE6806DE
:101C300008D5700606D521686FF04000086120467F
:101C400000F022F8A8060AD5B00608D521686FF082
:101C5000200008612046BDE8F041FFF726BEBDE840
:101C6000F0817047704700000549884206D1054859
:101C70004188491C41800178491C0170704700006F
:101C8000241C0020100000207047FEE7094808B51A
:101C9000016841F4800101600068002200F48000C6
:101CA000009011463B20FFF7B1F8BDE808403B200B
:101CB000FFF79EB8303802400D4808B5016841F082
:101CC00004010160016801F004010091016841F024
:101CD00080010160016801F080010091016841F01C
:101CE00001010160006800F00100009008BD0000E3
:101CF0003038024000B585B014216846FEF72FFC4D
:101D00000A480021084AC0E900217F228260FF22A0
:101D1000C0E9032141618161FFF714FC002801D073
:101D2000FEF79AFD05B000BD002800404C1B0020C6
:101D3000104810B50E4901604FF4827141600021D6
:101D400081600122C160C0E904125202826118223E
:101D5000C0E90721416281620A21C162FFF779FC73
:101D6000002803D0BDE81040FEF776BD10BD00008E
:101D7000003001406C1B002010B586B000241748CD
:101D8000009401940294039404941349059401600F
:101D90005321C0E9011440F2E731C0E90314802166
:101DA0008161FFF7CBFD08B1FEF756FD4FF480507F
:101DB000009069460948FFF74DFE08B1FEF74CFD5B
:101DC000049404A905480594FFF770FD002801D08C
:101DD000FEF742FD06B010BD00040040241C0020A8
:101DE000FEE7FEE7704770B50028DDE90554049E64
:101DF00007D080F8081380F8092303804680858087
:101E0000C48070BD010901EB810100F00F0000EBFF
:101E10004100C0B2704700002DE9F041044600685F
:101E20000025C168490618D4C16841F08001C1602D
:101E3000FEF77EFF06464FF47A78042707E000BFDE
:101E4000FEF776FF801B404501D9677701252068A2
:101E5000C068400601D4002DF2D02846BDE8F081CC
:101E600070B5044600680025C16821F08001C1609A
:101E700020688068800606D42046FFF7CDFB10B1AD
:101E8000042060770125284670BD10B5806B01687D
:101E90004A6822F003024A60416D41F01001416539
:101EA000012180F85110FFF7D3FB10BD10B5806BF6
:101EB000FFF7E5FC10BD38B50546846BFEF738FF2B
:101EC000024628680068C00523D42068416821F0D4
:101ED000200141602068416821F0020141606421D5
:101EE000204600F01BF818B1606D40F020006065DE
:101EF000A068002118B92068C26880680090E18657
:101F0000012084F85100606D18B12046FFF7A0FB56
:101F100038BD2046FFF7B2FC38BD0000F8B51546C5
:101F20000E460B46009204460122022100F02CF8D6
:101F3000A0B9134813490068B0FBF1F04FF47A716F
:101F4000484300906068B0F5827F0DD1334600228F
:101F500080212046009500F017F870B1606D40F0C8
:101F6000200060650320F8BD009830B1401E00904D
:101F700020688068C0430006F6D50020F8BD000048
:101F80002800002000366E012DE9F8431E469146D8
:101F900088460446089DFEF7CBFE401B351AFEF727
:101FA000C7FE074625480068C0F3CB30684338E0D9
:101FB000701C37D0FEF7BCFEC01BA84203D215B17F
:101FC000009860B32CE02068416821F0E001416096
:101FD0006068B0F5827F0BD1A068B0F5004F02D0E9
:101FE000B0F5806F04D12068016821F040010160E4
:101FF000A06AB0F5005F09D12068016821F40051A2
:1020000001602068016841F400510160012084F8FA
:102010005100002084F850000320BDE8F88300251B
:10202000401E00902068816838EA010004D0002139
:102030004945BDD10020F0E70121F9E72800002043
:102040007047FEF77BBE000030B593B03021684684
:10205000FEF785FA14210CA8FEF781FA1E48002429
:10206000016841F080510160006800F080501190DB
:102070001A48016841F4804101600068022500F4BB
:1020800080401190062000900120029003901020C3
:10209000049006950820CDE90740A820CDE9090560
:1020A00004200B906846FFF74BF808B172B6FEE7C4
:1020B0000F20CDE90C054FF4A050CDE90E404FF4B0
:1020C0008050109005210CA8FEF770FF002801D069
:1020D00072B6FEE713B030BD4038024000700040D9
:1020E0000248016841F470010160704788ED00E02A
:1020F0000148FFF71EBD0000241C0020F0B5026857
:10210000294C2A4D2A4E2B4F2B4B4FF0804CA0428E
:1021100009D0604507D0A84205D0B04203D0B842EC
:1021200001D0984204D122F0700E4A6842EA0E02B1
:10213000A0421BD0604519D0A84217D0B04215D09C
:10214000B84213D0984211D01C4DA8420ED01C4D5D
:10215000A8420BD01B4DA84208D01B4DA84205D069
:102160001A4DA84202D01A4DA84203D122F440755C
:10217000CA682A434D6922F080022A4302608A68B5
:10218000C2620A688262A04201D0984201D1096904
:102190000163012141610169C90703D0016921F08F
:1021A00001010161F0BD0000000001400004004099
:1021B00000080040000C00400004014000400140C5
:1021C000004401400048014000180040001C00404D
:1021D0000020004010B5846842EA032224F47F44C2
:1021E0000A432243826010BD826822F070020A43D3
:1021F00042F007018160704710B5036A046A24F059
:1022000001040462846924F0F00444EA021423F017
:102210000A020A438461026210BD10B5036A046AAF
:1022200024F010040462846923F0A00324F47044B1
:1022300044EA023243EA01118261016210BD0000EA
:10224000074C00256088642802D301F0BFFC65803C
:1022500020781428F6D3FEF75DFA2570F2E7000027
:1022600010000020FEE72DE9F04F00238E46834644
:102270009946002202EB420000210EEB401601EBD2
:10228000C904002004EB4405741903EB430A677882
:10229000C740FF0701D0FC2700E0C0274FEA570CDA
:1022A000C0EBCA0808EB0B0787F807C016F805C093
:1022B0002CFA00FC5FEACC7C02D04FF0FC0C01E071
:1022C0004FF0C00C4FEA5C0C87F80FC094F802C0C6
:1022D0002CFA00FC5FEACC7C02D04FF0FC0C01E051
:1022E0004FF0C00C4FEA5C0C401C87F817C0082860
:1022F000CDDB491C5B1C0829C1DB521C082AB9DB59
:1023000009F101001FFA80F9B9F1040FB1D3BDE85A
:10231000F08F2DE9FC411646DDE9082C1D460F46DD
:10232000040076D06088011DE18021884B1DA380C8
:10233000A2F141031A2B81F03081DFE813F01A007B
:102340006B00D500FE005601C50110025D0295022A
:10235000E70218037303810318049604EA045A057C
:10236000CD053B06A106EB065407B8074D08A608A5
:10237000F608401CCDE90065C2B2C9B23B46204612
:1023800001F0F6FBCDE90065A0782178801CC2B28F
:102390003B46204601F0ECFBCDE900652078A278B1
:1023A000401CC1B23B46204601F0E2FBCDE900658E
:1023B000A0783B46C01CC2B22078401CC1B2204667
:1023C00001F0D6FBCDE900652078A278801CC1B26F
:1023D0003B46204601F0CCFBCDE90065A0783B46AA
:1023E000401CC2B22078801CC1B2204601F0C0FB64
:1023F000CDE90065A0783B46801CC2B22078801CE5
:10240000C1B2204601F0B4FBCDE90065A078C01C44
:10241000FDE3FDE3CDE90065C2B2C9B23B4620460B
:1024200001F0A6FBCDE90065A0782178401CC2B27E
:102430003B46204601F09CFBCDE90065A078217861
:10244000801CC2B23B46204601F092FBCDE90065FC
:102450002078A278401CC1B23B46204601F088FBA0
:10246000CDE90065A0783B46C01CC2B22078401C74
:10247000C1B2204601F07CFBCDE900652078A2784E
:10248000801CC1B23B46204601F072FBCDE90065DD
:10249000A0783B46401CC2B22078801CC1B22046C6
:1024A00001F066FBCDE90065A0783B46801CC2B216
:1024B0002078801CC1B2204601F05AFBCDE90065AE
:1024C000A0783B46C01CC2B22078801CC1B2204616
:1024D00001F04EFBCDE900652078A278C01CFEE338
:1024E000C2B22078001DFBE3CDE90065C2B2C9B2DB
:1024F0003B46204601F03CFBCDE90065A078217801
:10250000401CC2B23B46204601F032FBCDE90065DB
:10251000A0782178801CC2B23B46204601F028FBFF
:10252000CDE90065A0782178C01CC2B23B462046A8
:102530007EE2C2B22078001D8DE3CDE90065C2B213
:10254000C9B23B46204601F013FBCDE90065207877
:10255000A278401CC1B23B46204601F009FBCDE900
:1025600000652078A278801CC1B23B46204601F06D
:10257000FFFACDE900652078A278C01CC1B23B46C5
:10258000204601F0F5FACDE900652078A278001D1B
:10259000C1B23B46204601F0EBFACDE90065A078D8
:1025A0002178401CC2B23B46204601F0E1FACDE959
:1025B0000065A0783B46401CC2B22078001DC1B225
:1025C000204601F0D5FACDE90065A0782178801C7D
:1025D000C2B23B46204601F0CBFACDE90065A078B7
:1025E000801CC2B22078001DFCE3CDE90065C2B2B8
:1025F000C9B23B46204601F0BBFACDE90065A078A0
:102600002178401CC2B23B46204601F0B1FACDE928
:102610000065A0782178801CC2B23B46204601F0BC
:10262000A7FACDE90065A0782178C01CC2B23B466C
:10263000204601F09DFACDE900652078A278401C83
:10264000C1B23B46204601F093FACDE90065A0787F
:102650003B46401CC2B22078801CC1B2204601F02B
:1026600087FACDE90065A0783B46801CC2B220788D
:10267000801CC1B2204601F07BFACDE90065A0784C
:10268000C01CC2B22078801CC1B23B46204601F07B
:102690006FFACDE90065A0783B46C2B22078801C75
:1026A000C1B2204601F064FACDE900652078A27835
:1026B000C01CC1B23B46204601F05AFACDE9006584
:1026C0002078A278001DF0E3CDE90065C2B2C9B25E
:1026D0003B46204601F04CFACDE90065A078217810
:1026E000401CC2B23B46204601F042FACDE90065EB
:1026F000A0782178801CC2B23B46204601F038FA0F
:10270000CDE90065A0782178C01CC2B23B462046C6
:1027100001F02EFACDE900652078A278401CC1B204
:102720003B46204601F024FACDE900652078A278E6
:10273000801CC1B23B46204601F01AFACDE9006583
:10274000A0783B46401CC2B22078801CC1B2204613
:1027500001F00EFACDE90065A078801C31E3401C41
:10276000CDE90065C2B2C9B23B46204601F000FA8D
:10277000CDE90065A0782178801CC2B23B46204696
:1027800001F0F6F9CDE90065A0782178C01CC2B24D
:102790003B46204601F0ECF9CDE900652078A278AF
:1027A000401CC1B23B46204601F0E2F9CDE900658C
:1027B0002078A278801CC1B23B46204601F0D8F9AF
:1027C000CDE90065A0783B46801CC2B22078801C11
:1027D000C1B2204601F0CCF9CDE90065A0783B46B6
:1027E000C01CC2B22078801CC1B2204601F0C0F9E2
:1027F000CDE90065A07849E3CDE90065C2B2C9B270
:102800003B46204601F0B4F9CDE900652078A27876
:10281000401CC1B23B46204601F0AAF9CDE9006553
:102820002078A278801CC1B23B46204601F0A0F976
:10283000CDE900652078A278C01CC1B23B46204695
:1028400001F096F9CDE900652078A278001DC1B2AB
:102850003B46204601F08CF9CDE90065A078401C8C
:10286000C2B22078801CB9E1CDE90065C2B2C9B21C
:102870003B46204601F07CF9CDE90065A07821783F
:10288000401CC2B23B46204601F072F9CDE900651A
:10289000A0782178801CC2B23B46204601F068F93E
:1028A000CDE90065A0783B46401CC2B22078401CB0
:1028B000C1B2204601F05CF9CDE90065A0783B4645
:1028C000401CC2B22078801CC1B2204601F050F9F1
:1028D000CDE90065A0783B46401CC2B22078C01C00
:1028E000C1B2204601F044F9CDE900652078A27814
:1028F000001DC1B23B46204601F03AF9CDE9006522
:10290000A078401CC2B22078001DFEE3C01CCDE9B7
:102910000065C2B2C9B23B46204601F029F9CDE9B3
:102920000065A0783B46C01CC2B22078401CC1B2F2
:10293000204601F01DF9CDE90065A0783B46C01C9A
:10294000C2B22078801CC1B2204601F011F9CDE955
:102950000065A0783B46C01CC2B22078C01CC1B242
:10296000204601F005F9CDE90065A078CDE1CDE97B
:102970000065C2B2C9B23B46204601F0F9F8CDE984
:1029800000652078A278401CC1B23B46204601F089
:10299000EFF8CDE900652078A278801CC1B23B46F3
:1029A000204601F0E5F8CDE900652078A278C01C4A
:1029B000C1B23B46204601F0DBF8CDE90065207846
:1029C000A278001DC1B23B46204601F0D1F8CDE906
:1029D0000065A0783B46401CC2B22078801CC1B282
:1029E000204601F0C5F8CDE90065A0783B46801C83
:1029F000C2B22078401CC1B2204601F0B9F8CDE93E
:102A00000065A0783B46801CC2B22078C01CC1B2D1
:102A1000204601F0ADF8CDE90065A078C01CC2B237
:102A2000207818E1CDE90065C2B2C9B23B46204624
:102A300001F09EF8CDE900652078A278401C23E6DD
:102A4000CDE90065C2B2491CC9B23B46204601F03F
:102A50008FF8CDE900652078A278801CC1B23B4692
:102A6000204601F085F8CDE900652078A278C01CE9
:102A7000C1B23B46204601F07BF8CDE900652078E5
:102A8000A278001DC1B23B46204601F071F8CDE9A5
:102A90000065A0782178401CC2B23B46204601F078
:102AA00067F8CDE90065A0783B46801CC2B220786B
:102AB000401CC1B2204601F05BF8CDE90065A0786A
:102AC0003B46801CC2B22078801CC1B2204601F077
:102AD0004FF8CDE90065A0783B46801CC2B2207853
:102AE000C01CC1B2204601F043F8CDE90065A078D2
:102AF0003B46801CC2B22078001DC1B2204601F0C6
:102B000037F8CDE90065A0782178C01CC2B23B46F9
:102B1000204601F02DF8CDE90065A0783B46001D68
:102B2000C2B22078401CC1B2204601F021F8CDE9A4
:102B30000065A0783B46001DC2B22078801CC1B25F
:102B4000204601F015F8CDE90065A0783B46001D50
:102B5000C2B22078C01CC1B2204601F009F8CDE90C
:102B60000065A078001DC2B22078001DFDE3CDE90C
:102B70000065C2B2C9B23B46204600F0F9FFCDE97C
:102B800000652078A278401CC1B23B46204600F088
:102B9000EFFFCDE900652078A278801CC1B23B46EA
:102BA000204600F0E5FFCDE900652078A278C01C42
:102BB000C1B23B46204600F0DBFFCDE9006520783E
:102BC000A278001DC1B23B46204600F0D1FFCDE9FE
:102BD0000065A078401CC2B22078401CC1B23B46C0
:102BE000204600F0C5FFCDE90065A0783B46801C7B
:102BF000C2B22078801CC1B2204600F0B9FFCDE9F6
:102C00000065A0782178C01CC2B23B4601E0AFE16C
:102C10004BE3204600F0ACFFCDE90065A0783B46D1
:102C2000C01CC2B22078401CC1B2204600F0A0FFF8
:102C3000CDE90065A0783B46C01CC2B22078801C5C
:102C4000C1B2204600F094FFCDE90065A078C01C19
:102C5000C2B22078C01CC1B23B46204600F088FFBB
:102C6000CDE90065A078C01C3AE4401CCDE90065C0
:102C7000C2B2C9B23B46204600F07AFFCDE90065FA
:102C8000A0782178801CC2B23B46204600F070FF3D
:102C9000CDE900652078A278401CC1B23B462046B1
:102CA00000F066FFCDE90065A0783B46C01CC2B2CB
:102CB0002078401CC1B2204600F05AFFCDE90065E3
:102CC0002078A278801CC1B23B46204600F050FF1D
:102CD000CDE90065A078C01CC2B2207801E0A3E174
:102CE00080E2801CC1B23B46204600F041FFCDE9A6
:102CF00000652078A278C01CC1B23B46204600F097
:102D000037FFCDE90065A078C01CC2B22078C01C96
:102D1000A0E1CDE90065C2B2C9B23B46204600F051
:102D200027FFCDE90065A0782178401CC2B23B4660
:102D3000204600F01DFFCDE90065A0782178801CB9
:102D4000C2B23B46204600F013FFCDE90065207873
:102D5000A278401CC1B23B46204600F009FFCDE9F5
:102D60000065A0783B46C01CC2B22078401CC1B2AE
:102D7000204600F0FDFECDE900652078A278801C99
:102D8000C1B23B46204600F0F3FECDE90065A078D5
:102D90003B46401CC2B22078801CC1B2204600F0E5
:102DA000E7FECDE90065A0783B46801CC2B22078E2
:102DB000801CC1B2204600F0DBFECDE90065A078A2
:102DC000C01CC2B220783B46801CC1B2204600F035
:102DD000CFFECDE900652078A278C01CC1B23B4689
:102DE000204600E0DAE100F0C3FECDE90065A078FE
:102DF0003AE7401CCDE90065C2B2C9B23B46204665
:102E000000F0B6FECDE90065A0782178801CC2B242
:102E10003B46204600F0ACFECDE900652078A27864
:102E2000401CC1B23B46204600F0A2FECDE9006541
:102E3000A0783B46C01CC2B22078401CC1B22046DC
:102E400000F096FECDE900652078A278801CC1B222
:102E50003B46204600F08CFECDE90065A0783B465D
:102E6000C01CC2B22078801CC1B2204600F080FE97
:102E7000CDE900652078A278C01CC1B23B4620464F
:102E800000F076FECDE90065A078801CC2B2207803
:102E90003B46C01CC1B2204600F06AFECDE9006589
:102EA000A078C01CC2B22078C01CC1B23B462046EC
:102EB00000F05EFECDE90065A0783B46401CC2B242
:102EC0002078001DC1B2204600F052FECDE9006519
:102ED000A078801CFFF72DBBCDE90065C2B2C9B256
:102EE0003B46204600F044FECDE90065A0782178FD
:102EF000401CC2B23B46204600F03AFECDE90065D8
:102F0000A0782178801CC2B23B46204600F030FEFB
:102F1000CDE900652078A278401CC1B23B4620462E
:102F200000F026FECDE90065A0783B46C01CC2B289
:102F30002078401CC1B2204600F01AFECDE90065A1
:102F40002078A278801CC1B23B46204600F010FEDB
:102F5000CDE90065A0783B46401CC2B22078801CB9
:102F6000C1B2204600F004FECDE90065A078801CC7
:102F7000C2B220783B46801CC1B2204600F0F8FD6A
:102F8000CDE900652078A278C01CC1B23B4620463E
:102F900000F0EEFDCDE90065A0783B46C01CC2B252
:102FA0002078C01CC1B2204600F0E2FDCDE90065EA
:102FB000A0788FE7401CCDE90065C2B2C9B23B469C
:102FC000204600F0D5FDCDE90065A0782178801C71
:102FD000C2B23B46204600F0CBFDCDE90065A078AB
:102FE0002178C01CC2B23B46204600F0C1FDCDE9AD
:102FF00000652078A278401CC1B23B46204600F014
:10300000B7FDCDE90065A0783B46401CC2B22078F0
:10301000801CC1B2204600F0ABFDCDE90065A07870
:10302000801CC2B22078801CC1B23B46204600F012
:103030009FFDCDE90065A0783B46C01CC2B2207858
:10304000C01CC1B2204600F093FDCDE90065207898
:10305000A278001DC1B23B46204600F089FDCDE9B3
:103060000065A0783B46401CC2B22078001DC1B26A
:10307000204600F07DFDCDE90065A078801CF3E5D9
:10308000CDE90065C2B2C9B23B46204600F070FDF2
:10309000CDE90065A0782178401CC2B23B462046AD
:1030A00000F066FDCDE90065A0782178801CC2B2F1
:1030B0003B46204600F05CFDCDE90065A0783B462C
:1030C000401CC2B22078401CC1B2204600F050FD26
:1030D000CDE90065A0783B46401CC2B22078801C38
:1030E000C1B2204600F044FDCDE90065A0783B4622
:1030F000401CC2B22078C01CC1B2204600F038FD8E
:10310000CDE90065A078401C00E0B4E1C2B22078AF
:10311000001D01E2CDE90065C2B2C9B23B462046BE
:1031200000F026FDCDE900652078A278401CC1B2F0
:103130003B46204600F01CFDCDE900652078A278D2
:10314000801CC1B23B46204600F012FDCDE900656F
:103150002078A278C01CC1B23B46204600F008FD92
:10316000CDE90065A0783B46401CC2B22078001D26
:10317000C1B2204600F0FCFCCDE90065A0783B46DA
:10318000801CC2B22078001DC1B2204600F0F0FCC5
:10319000CDE90065A078C01CC2B220783B46C1B220
:1031A000204600F0E5FCCDE90065A0783B46C01C58
:1031B000C2B22078401CC1B2204600F0D9FCCDE953
:1031C0000065A0783B46C01CC2B22078801CC1B20A
:1031D000204600F0CDFCCDE90065A078C01CC2B24D
:1031E0002078C01C5CE0CDE90065C2B2C9B23B46A4
:1031F000204600F0BDFCCDE900652078A278401C97
:10320000C1B23B46204600F0B3FCCDE90065207812
:10321000A278801CC1B23B46204600F0A9FCCDE953
:103220000065A0783B46401CC2B22078C01CC1B2E9
:10323000204600F09DFCCDE90065A0783B46801C4F
:10324000C2B22078C01CC1B2204600F091FCCDE98A
:103250000065A0783B46801CC2B22078001DC1B238
:10326000204600F085FCCDE90065A0782178C01CDF
:10327000C2B23B46204600F07BFCCDE90065A07859
:103280003B46C01CC2B22078401CC1B2204600F0B0
:103290006FFCCDE90065A078C01CC2B22078801C0C
:1032A000C1B23B46204600F063FCBDE8FC81CDE99D
:1032B0000065C2B2C9B23B46204600F059FCCDE9D8
:1032C00000652078A278401CC1B23B46204600F041
:1032D0004FFCCDE900652078A278801CC1B23B4646
:1032E000204600F045FCCDE900652078A278C01C9E
:1032F000C1B23B46204600F03BFCCDE90065A0781A
:103300003B46401CC2B22078001DC1B2204600F0EE
:103310002FFCCDE90065A0783B46801CC2B2207826
:10332000401CC1B2204600F023FCCDE90065A07826
:103330003B46801CC2B22078801CC1B2204600F0FF
:1033400017FCCDE90065A0783B46801CC2B220780E
:10335000C01CC1B2204600F00BFCCDE90065A0788E
:10336000C01CC2B22078001D00E02DE0C1B23B4677
:10337000204600F0FDFBCDE90065A0782178001D16
:10338000C2B23B46204600F0F3FBCDE90065A078D1
:103390003B46001DC2B22078401CC1B2204600F05E
:1033A000E7FBCDE90065A0783B46001DC2B220785E
:1033B000801CC1B2204600F0DBFBCDE90065A0789F
:1033C000001DC2B22078C01CC1B23B46204600F0AE
:1033D000CFFB6088401DA6E0CDE90065C2B2C9B24E
:1033E0003B46204600F0C4FBCDE900652078A2787A
:1033F000401CC1B23B46204600F0BAFBCDE9006557
:103400002078A278C01CC1B23B46204600F0B0FB39
:10341000CDE900652078A278001DC1B23B46204668
:1034200000F0A6FBCDE90065A0783B46401CC2B287
:103430002078801CC1B2204600F09AFBCDE90065DF
:10344000A0782178801CC2B23B46204600F090FB59
:10345000CDE90065A0783B46801CC2B22078401CB4
:10346000C1B2204600F084FBCDE90065A078801C45
:10347000C2B22078C01CC1B23B46204600F078FBA7
:10348000CDE90065A078801C3EE6CDE90065C2B2BA
:10349000C9B23B46204600F06BFBCDE900652078C1
:1034A000A278401CC1B23B46204600F061FBCDE94A
:1034B0000065A0783B46401CC2B22078801CC1B297
:1034C000204600F055FBCDE90065A0783B46401C46
:1034D000C2B22078C01CC1B2204600F049FBCDE941
:1034E0000065A0783B46401CC2B22078001DC1B2E6
:1034F000204600F03DFBCDE90065A0782178801CD6
:10350000C2B23B46204600F033FBCDE90065A0780F
:10351000801CC2B22078401CC1B23B46204600F05D
:1035200027FB6088C01CE080BFE6CDE90065C2B221
:10353000C9B23B46204600F01BFBCDE90065A078F0
:103540002178401CC2B23B46204600F011FBCDE979
:103550000065A0782178801CC2B23B46204600F06E
:1035600007FBCDE90065A0782178C01CC2B23B46BC
:10357000204600F0FDFACDE90065A0783B46801CAE
:10358000C2B22078401CC1B2204600F0F1FACDE969
:103590000065A078401CFFF77FB8CDE9002C2B46D2
:1035A00032463946204600F001F87EE62DE9FF4F0D
:1035B00085B00400DDE9121570D001200227032632
:1035C0002E394FF004084FF0050B4FF0060A4FF06C
:1035D00007090C2962D2DFE801F0FE61064C62990E
:1035E000D3FDFCFBFAF961882288CDE90215CDE90B
:1035F00000020DF11809204699E80E0000F032FA99
:103600006088218800970395CDE9011099E80E00A4
:10361000204600F027FA6188208801AA009682E8F7
:10362000230099E80E00204600F01CFA60882188EB
:10363000CDF800800395CDE9011099E80E002046F1
:1036400000F010FA6288208801A9CDF800B081E866
:10365000250099E80E00204600F004FA60882188D1
:10366000CDF800A00395CDE9011099E80E002046A1
:10367000F3E16088218800970395CDE901100DF1F1
:103680001808204698E80E0000F0ECF961882088C0
:1036900001AA009682E823002046A1E0DFE16188CC
:1036A0002288CDE90215CDE9000206AE204696E853
:1036B0000E0000F0D7F96188208801AA009782E8FF
:1036C000230096E80E00204600F0CCF9618820889F
:1036D00001AACDF8009082E8230096E80E0020466B
:1036E00000F0C0F960882188CDF800800395CDE90D
:1036F000011096E80E00204600F0B4F96188208899
:1037000001AACDF800B082E82300A2E161882288F6
:10371000CDE90215CDE900020DF1180A20469AE81C
:103720000E0000F09FF96088218800970395CDE98D
:1037300001109AE80E00204600F094F96188208874
:1037400001AA009682E823009AE80E00204600F0C5
:1037500089F96188208801AACDF8008082E82300D9
:103760009AE80E00204600F07DF960882188CDF8A7
:1037700000900395CDE901109AE80E0020466CE117
:103780006188208801AA009782E823000DF11808BB
:10379000204698E80E0000F065F9608821880096C0
:1037A0000395CDE9011098E80E00204600F05AF983
:1037B00060882188CDF800A00395CDE9011098E834
:1037C0000E00204600F04EF9608805E0F6E097E034
:1037D00078E033E007E035E12188CDF800908AE019
:1037E00098E80E0039E161882288CDE90215CDE91B
:1037F000000206AF204697E80E0000F033F961881A
:10380000208801AA009682E8230097E80E0020464F
:1038100000F028F960882188CDF800800395CDE973
:10382000011097E80E00204600F01CF960882188FE
:10383000CDF800A00395CDE9011033E0628821881E
:103840008DE8270006AF204697E80E0000F00AF941
:103850006088218800960395CDE9011097E80E0055
:10386000204600F0FFF860882188CDF8008003959D
:10387000CDE9011097E80E00204600F0F3F86088CB
:103880002188CDF800B00395CDE9011097E80E002E
:10389000204600F0E7F861882288CDF800A0039563
:1038A000CDE9012197E80E00204600F0DBF86088A2
:1038B0002188CDF800900395CDE9011097E80E001E
:1038C0002046CAE0628821888DE827000DF118089B
:1038D000204698E80E0000F0C5F86088218800971F
:1038E0000395CDE9011098E80E00204600F0BAF8E3
:1038F0006088218800960395CDE9011020466FE786
:1039000061882288CDE90215CDE900020DF1180C7D
:1039100020469CE80E0000F0A5F8608821880097FA
:103920000395CDE901100DF1180C20469CE80E001E
:1039300000F098F86188208801AA009682E82300A8
:103940000DF1180C20469CE80E0000F08BF8618801
:10395000208801AACDF8008082E823000DF1180C20
:1039600020469CE80E0000F07DF86288218801ABBB
:10397000CDF800B083E826000DF1180C20469CE835
:103980000E0000F06FF860882188CDF800A0039544
:10399000CDE901100DF1180C20469CE80E0000F056
:1039A00061F860882188CDF800900395CDE9011079
:1039B0000DF1180C20469CE80E004EE0628821882C
:1039C0008DE827000DF1180B20469BE80E0000F053
:1039D00049F86088218800970395CDE901109BE89C
:1039E0000E00204600F03EF860882188009603957E
:1039F000CDE901109BE80E00204600F033F8608806
:103A00002188CDF800800395CDE901109BE80E00D8
:103A1000204600F027F860882188CDF800A00395A3
:103A2000CDE901109BE80E00204600F01BF86088ED
:103A30002188CDF800900395CDE901109BE80E0098
:103A400020460AE060882188082203950092CDE98B
:103A5000011006AE204696E80E0000F003F809B00B
:103A6000BDE8F08F2DE9FE4F99468A461346DDE901
:103A70000D15DDF830C00F9A040054D08DF808A061
:103A80008DF809308DF80A9002A8012A0FD0002A7B
:103A900049D1AA1C8E1C0F1D92B2BCF1090F3CD259
:103AA000DFE80CF03B343643484D505558002A1D92
:103AB000CE1C8F1D92B2BCF1080F0CD2DFE80CF0C7
:103AC0000B040611161B1E230B4611E0B3B20AE0CD
:103AD000204600F0F9F92088001DA0806088801D34
:103AE00020E0BBB2B1B2CDE90020F1E7BBB2B9B280
:103AF000CDE9002005E0BBB2B1B200E0B3B2CDE940
:103B000000502A46E4E7B3B2B1B2F1E70B4613E046
:103B1000B3B20CE0204600F0D7F92088001DA08049
:103B20006088C01CE080BDE8FE8FBBB2B1B2CDE9B9
:103B30000020EFE7BBB2B9B2CDE9002005E0BBB28F
:103B4000B1B200E0B3B2CDE900502A46E2E7B3B229
:103B5000B1B2F1E7CDE90039EAB2F9B253462046F5
:103B600000F006F82088001DA0806088401CD9E77E
:103B700030B501EB410100EB4110DDE9034502EBFB
:103B80004201084400F85B3D4470857030BD090770
:103B9000090E002804DB00F1E02080F800147047D3
:103BA00000F00F0000F1E02080F8141D704730385D
:103BB0000A2801D201207047002070477CB5DDE95A
:103BC0000645CDE9004500F07FF97CBD2DE9FE4FAB
:103BD000AC4CDFF8B4A24FF0010920784FF0000898
:103BE00068BBE61D282030705A2070707320B070BA
:103BF000201D972180F8008080F8018080F80280E5
:103C00008AF800108AF801808AF8028020200821B2
:103C1000CDF80090CDE90110012345464F466422BE
:103C200019469A48FEF7DFF81E20CDE90006072363
:103C3000022201210295954800F077F92770DFF8FC
:103C400050B20A275D469BF8020092A1B0FBF7F242
:103C50008C480A30FCF784FBA8788A4EB0FBF7F159
:103C600007FB11020A368BA1701CFCF779FB687800
:103C700088A1B0FBF7F2B01CFCF772FB6878B0FBD0
:103C8000F7F107FB110283A1F01CFCF769FB287810
:103C900080A1B0FBF7F2301DFCF762FB2878B0FB87
:103CA000F7F107FB11027BA1701DFCF759FBE078CF
:103CB000032530B101280DD0022814D003281AD0D2
:103CC00021E06078401CC0B260701E281BD384F8CD
:103CD000039018E0A078401CC0B2A070072812D34F
:103CE0000220E0700FE06078401EC0B260700228D1
:103CF00009D8E57007E0A078401EC0B2A070012886
:103D000001D884F803809AF802209AF80110CDE9CE
:103D100000129AF800306278A1785C48FFF728FF1B
:103D2000202408260095CDE90164022364220121A4
:103D30005648FEF758F8534F45460A3796233879C8
:103D4000CDE90008142242215048FEF7E2FA07208C
:103D5000CDE9000602236422012102944B48FEF7BC
:103D600042F87879CDE9000596231422422147488C
:103D7000FEF7CFFA0D20CDE90006022364220121CF
:103D800002944248FEF72FF8B878CDE90005962353
:103D9000142242213D48FEF7BCFA1120CDE900066D
:103DA00002236422012102943848FEF71CF8F878B7
:103DB000CDE900059623142242213448FEF7A9FAE2
:103DC0001720CDE9000602236422012102942F4826
:103DD000FEF709F83878CDE9000596231422422130
:103DE0002A48FEF796FA1B20CDE90006022364223A
:103DF000012102942548FDF7F6FF7878CDE900050A
:103E00009623142242212148FEF783FADBF80400AE
:103E10007F2821D996241425CDE9005442230B2272
:103E200003211A48FFF7A4FECDE9005442230B22D8
:103E300005211648FFF79CFECDE9005442231522C8
:103E400003211248FFF794FECDE9005442231522C6
:103E500005210E48FFF78CFE0C490F480831FEF78C
:103E600002FA0D48FCF7EAFC06491D20091DCDE9C0
:103E700000010623032202210448FFF79FFEBDE84C
:103E8000FE8F000000000020150000202C00002004
:103E900038030020253164004C030020FCF756FF56
:103EA000FEF7D2F8FDF708FFFDF7F0FEFDF740FF43
:103EB000FDF762FFFDF71EFF0248FDF78BFDFEF7E1
:103EC000BFF9FEE7241C00202DE9FC471D46DDE973
:103ED0000A6791465FEA000A25D0002F23D0681AAE
:103EE00021D4B6EB09001ED4082D00D90825202EB8
:103EF00000D92026C8B213E009F0FF040BE0B9781E
:103F00007878CDE900013B78224641465046FFF7DC
:103F10002FFE641CE4B2B442F1D908F10100C0B232
:103F20008046A842E8D9BDE8FC872DE9FC471D463C
:103F3000DDE90A470C9E904689465FEA000A34D0C4
:103F4000A5EB0900002830DDA4EB080000282CDDDB
:103F5000082D00D90825202C00D9202408EB0600C4
:103F600080B2CDE900072B46424649465046FFF74E
:103F7000ABFFA01BCDE9004782B22B464946504615
:103F8000FFF7A2FF09EB0600CDE9004783B24246E6
:103F900049465046FFF798FFA81BCDE9004781B27C
:103FA0002B4642465046FFF78FFFBDE8FC874FF097
:103FB0004070E1EE100A7047000610160006101659
:103FC00000000000000000000102030406070809C9
:103FD000F03F0008000000202C000000C401000891
:103FE0001C4000082C000020A4220000E001000872
:103FF00000010100000000000000000000000000BF
:1040000000000000000000000000000001000000AF
:0C40100010000000000000000024F4007C
:040000050800018965
:00000001FF
