:020000040800F2
:100000002811002031020008D3200008C71F000873
:10001000D1200008990600082D25000800000000E6
:10002000000000000000000000000000BD220008E9
:100030005D0E000800000000D52000081B2300080A
:100040004B0200084B0200084B0200084B0200085C
:100050004B0200084B0200084B0200084B0200084C
:100060004B0200084B0200084B0200084B0200083C
:100070004B0200084B0200084B0200084B0200082C
:100080004B0200084B0200084B0200084B0200081C
:100090004B0200084B0200084B0200084B0200080C
:1000A0004B0200084B0200084B0200084B020008FC
:1000B0004B020008C52300084B0200084B02000851
:1000C0004B0200084B0200084B0200084B020008DC
:1000D0004B0200084B0200084B0200084B020008CC
:1000E0004B0200084B0200084B0200084B020008BC
:1000F0004B0200084B0200084B0200084B020008AC
:100100004B0200084B0200084B0200084B0200089B
:100110004B0200084B0200084B0200084B0200088B
:100120004B0200084B0200084B020008AD0D00080E
:100130004B0200084B0200084B0200084B0200086B
:100140004B0200084B0200084B0200084B0200085B
:100150004B0200084B0200084B0200084B0200084B
:100160004B0200084B0200084B0200084B0200083B
:100170004B0200084B0200084B0200080000000080
:100180004B0200084B02000800F002F800F040F8B3
:100190000AA090E8000C82448344AAF10107DA45E2
:1001A00001D100F035F8AFF2090EBAE80F0013F0F4
:1001B000010F18BFFB1A43F001031847B82E0000C7
:1001C000D82E0000103A24BF78C878C1FAD8520758
:1001D00024BF30C830C144BF04680C6070470000C1
:1001E0000023002400250026103A28BF78C1FBD840
:1001F000520728BF30C148BF0B6070471FB502F0DF
:1002000027FF9DE8030000F069F91FBD10B510BD80
:1002100000F0C0F91146FFF7F1FF02F03DFD00F0DC
:10022000DEF903B4FFF7F2FF03BC00F00FFA0000A1
:100230000948804709480047FEE7FEE7FEE7FEE77A
:10024000FEE7FEE7FEE7FEE7FEE7FEE704480549B6
:10025000054A064B70470000B523000889010008D5
:100260002809002028110020280D0020280D00203A
:1002700070B5064600F016F9056806F10B0020F08F
:100280000704B4429CBF002070BD2B466A68BAB117
:100290001068A04210D304F1080188423CBF5068A6
:1002A000586007D35168101941601168091B01603B
:1002B00058601460101D70BD13465268002AE7D1C3
:1002C0002146284600F0F6F80028DED170BD70B552
:1002D0000446051F00F0E6F80068002C14BF4468CF
:1002E00070BD002C18BFAC423CBF20466468F8D3F8
:1002F00001680A18AA4218BF456003D12A6805465A
:100300001144016028684119A1421CBF6C6070BD96
:100310006168696021680844286070BD53EA020C76
:1003200000F069802DE9F04B4FF00006002B1FBF55
:10033000B3FA83F503FA05F424FA05F65E4012BF1A
:100340001643B2FA82F502FA05F4C5F120051EBF84
:1003500022FA05FC44EA0C04203556EA044C4FEA24
:10036000144418BF641C4FF000084FF0000990427D
:1003700071EB030C39D3002919BFB1FA81F701FAE7
:1003800007F6B0FA80F700FA07F6C7F120071EBF9C
:1003900020FA07FC46EA0C062037B6FBF4FCA7EB74
:1003A0000507103F07F01F0BCBF120060CFA0BFBE3
:1003B0002CFA06F644BFB3460026202FA4BF5E46A3
:1003C0004FF0000B5BEA060C08BF4FF0010B19EB76
:1003D0000B09ABFB027C48EB0608C01B06FB02CCFA
:1003E0000BFB03CC71EB0C01C1E70B460246414607
:1003F0004846BDE8F08B13B54FF000004FF0000108
:10040000AFF30080BDE81C4070474FF000020429A4
:10041000C0F0128010F0030C00F01B80CCF1040C33
:10042000BCF1020F18BF00F8012BA8BF20F8022B67
:10043000A1EB0C0100F00DB85FEAC17C24BF00F80D
:10044000012B00F8012B48BF00F8012B70474FF03B
:10045000000200B5134694469646203922BFA0E814
:100460000C50A0E80C50B1F12001BFF4F7AF090720
:1004700028BFA0E80C5048BF0CC05DF804EB890011
:1004800028BF40F8042B08BF704748BF20F8022B54
:1004900011F0804F18BF00F8012B7047704770476C
:1004A0007047000000487047D00800207047704730
:1004B0007047704738B504460A4600206946AFF3D6
:1004C0000080002808BF38BD02460099204600F091
:1004D0003FF8012038BD012000F054B8F8B5AFF363
:1004E0000080054600200C46102000BF0646A819D3
:1004F000A0420DD9324669460020AFF300800700C4
:1005000008BF00F03FF80098A04218BF0546C41984
:10051000FFF7C8FF05600746F01D20F007004619E9
:10052000284600F00AF8B44208BFF8BDA21B3146C5
:100530003868BDE8F84000F00BB800210160C0E960
:10054000011070471020704700487047C80800200D
:10055000034640688C46002818BF88423CBF0346CB
:100560004068F8D318681844884207D00CF103009B
:1005700020F00700001D411A521A0146081D0A60AA
:10058000FFF7A5BE10B500F039F8BDE8104000F047
:100590002FB870477546FFF7D7FFAE46050069468E
:1005A000534620F00700854618B020B5FFF74EFEF1
:1005B000BDE820404FF000064FF000074FF0000864
:1005C0004FF0000B21F00701AC46ACE8C009ACE8E5
:1005D000C009ACE8C009ACE8C0098D46704710B549
:1005E0000446AFF300802046BDE81040FFF719BE77
:1005F000002801D000F02AB87047000010B501288B
:1006000005D0002103A000F027F8012010BD09A1AA
:10061000F8E7000053494752544D454D3A204F7575
:1006200074206F662068656170206D656D6F7279EA
:10063000000000003A2048656170206D656D6F72A2
:100640007920636F727275707465640001491820B7
:10065000ABBEFEE72600020070B505460C460A2038
:1006600000E06D1C00F011F835B128780028F8D1B1
:1006700002E0641C00F009F814B120780028F8D1D9
:10068000BDE870400A20AFF3008008B569468DF8D8
:1006900000000320ABBE08BDFEE700002DE9F04FCF
:1006A0001C462DED028B85B093460D4606007CD08E
:1006B000002D7AD0002C78D0BBF1000F75D096F8C1
:1006C000C900642871D895F8C90064286DD896F8D7
:1006D000C80095F8C8109FEDFE8AF7EE008A8842A0
:1006E00002D94FF0000903E04FF000097ED3BEE2CB
:1006F00009EB490006EBC00103910BEBC00105EBD0
:10070000C0004FF000070291CDF80000039807EBFE
:10071000470800EB080A0AF10800214602F0ACFA8B
:1007200001287DD0009901EB080001902146083096
:1007300002F0A2FA012874D095F8C90000EE100A60
:10074000F8EE400A80EE880A00EE900A0198B8EEB2
:10075000601A007AC1EE080A01EE100A207838EE1D
:10076000C00AB8EE411A01EE900AF8EE611A21EEC5
:10077000201A00EE211ABCEEC11A11EE100AC2B204
:100780000298404402720199497A01EE101A617888
:10079000B8EE411A01EE901A21EE201AF8EE611A15
:1007A00000EE211ABCEEC11A00E073E011EE101A3F
:1007B000C9B24172019B9B7A01EE103AA378B8EE60
:1007C000411A61EE200A01EE103AB8EE411A40EEED
:1007D000010ABCEEE00A10EE103ADBB2837296F822
:1007E000C9C000EE10CAF8EE400A00E0E7E080EE73
:1007F000880A78EEC00A00EE10CAB8EE401A81EE00
:10080000080A01EE102A9AF80820B8EE411A01EE03
:10081000902A21EE201AF8EE611A00EE211A01E06A
:100820003DE083E0BCEEC11A11EE102A01EE101A71
:1008300002729AF80910B8EE411A61EE201A01EE20
:10084000101AB8EE411A40EE011ABCEEE11A11EE90
:10085000101A01EE103A41729AF80A10B8EE411AD5
:1008600021EE201A00EE901AF8EE600A00EE201A2F
:10087000BCEEC10A10EE101A81727F1CBFB2082FA5
:10088000FFF444AF09F101001FFA80F9B9F1080F34
:10089000FFF429AF05B0BDEC028BBDE8F08F95F8F1
:1008A000C900029B00EE100A0098F8EE400A00EB27
:1008B0000801087A80EE880A00EE900A2078F8EEA7
:1008C000600A01EE900A03EB0800F8EE611A60EE90
:1008D000800A38EEC01A41EE210AFCEEE00A10EE62
:1008E000902A02724A7A00EE902A6278F8EE600A44
:1008F00060EE801A00EE902AF8EE600A41EE201AAF
:10090000FCEEE10A10EE902A4272897A00EE901A0B
:10091000A178F8EE600A20EE800A00EE901AF8EE58
:10092000600A01EE200ABCEEC00AA3E796F8C900EF
:10093000029900EE100A9AF808004144F8EE400AC5
:1009400080EE880A00EE900A2078F8EE600A01EE48
:10095000900AF8EE611A20EE801A78EEC00A00EED6
:10096000A11ABCEEC11A11EE100A08729AF8090019
:1009700001EE100A6078B8EE411A01EE900A21EEFD
:10098000001AF8EE611A00EEA11ABCEEC11A11EEBF
:10099000100A48729AF80A0001EE100AA078B8EE20
:1009A000411A21EE000A01EE100AB8EE411A00EEDB
:1009B000810ABCEEC00A10EE100A88725DE709EBEE
:1009C000490006EBC00103910BEBC00105EBC00031
:1009D000CDE90110002700BF039807EB470800EBA3
:1009E000080A0AF10800214602F046F901286ED0F3
:1009F0000298214640440090083002F03DF9012859
:100A000096F8C90000EE100AF8EE400A80EE880A57
:100A10007ED078EEC00A00EE100A9AF80800B8EE10
:100A2000401A81EE080A01EE100A2078B8EE411A49
:100A300001EE900AF8EE611A21EE001A00EEA11AFA
:100A4000BCEEC11A11EE100A00F0FF0C01984044F0
:100A500080F808C09AF8091001EE101A6178B8EE13
:100A6000411A01EE901A21EE001AF8EE611A00EE1A
:100A7000A11ABCEEC11A11EE101ACBB243729AF849
:100A80000A1001EE101AA178B8EE411A21EE000A00
:100A900001EE101AB8EE411A00EE810ABCEEC00A4F
:100AA00010EE101ACAB2827295F8C91000EE101A30
:100AB000F8EE400A80EE880A00EE901AB8EE601A4E
:100AC000C1EE080A01EE10CA38EEC00A02E048E0A2
:100AD0000000C842B8EE411A0099097A61EE001A86
:100AE00001EE101AB8EE411A40EE811ABCEEE11A7E
:100AF00011EE101A01EE103A01720099B8EE411A87
:100B0000497A61EE001A01EE101AB8EE411A00E0BF
:100B10006FE040EE811ABCEEE11A11EE101A01EE00
:100B2000102A41720099B8EE411A897A21EE001A12
:100B300000EE101AB8EE400A00EE801ABCEEC10AB0
:100B400010EE101A81727F1CBFB2082FFFF444AF61
:100B500009F101001FFA80F9B9F1080FFFF42FAF76
:100B600098E695F8C90000EE100A0298F8EE400ADF
:100B70004044017A80EE880A00EE901A2178F8EE5F
:100B8000600A01EE901A0199F8EE611A414420EED4
:100B9000801A78EEC00A00EEA11ABCEEC11A11EE5E
:100BA000102A0A72427A01EE102A6278B8EE411ACF
:100BB00061EE001A01EE102AB8EE411A40EE811AD9
:100BC000BCEEE11A11EE102A4A72807A01EE100A88
:100BD000A078B8EE411A21EE000A01EE100AB8EE34
:100BE000411A00EE810ABCEEC00A10EE100A8872AB
:100BF000A9E79AF8080000EE900A2078F8EE600A5B
:100C000001EE900A019820EE801A78EEC00AF8EE04
:100C1000611A404400EEA11ABCEEC11A11EE101A7E
:100C200001729AF8091001EE101A6178B8EE411AB3
:100C300001EE901A21EE001AF8EE611A00EEA11AE8
:100C4000BCEEC11A11EE101A41729AF80A1001EEA8
:100C5000101AA178B8EE411A21EE000A01EE101A1E
:100C6000B8EE411A00EE810ABCEEC00A68E709EB53
:100C7000490006EBC00103910BEBC00105EBC0007E
:100C8000CDE90110002700BF039907EB470801EBEE
:100C9000080A0AF10800214601F0EEFF01286DD094
:100CA000029901EB080000902146083001F0E4FFB2
:100CB00001286FD096F8C90095F8C91000EE100A07
:100CC000F8EE400A00EE101A0199B8EE400A4144CD
:100CD00070EE800A00EE100A9AF80800B8EE401A8A
:100CE00081EE200A01EE100A0098B8EE411A007A4F
:100CF00001EE900AF8EE611A78EEC00A21EE001AB1
:100D000001EEA01ABCEEC11A11EE102A0A729AF86E
:100D1000090001EE100A0098B8EE411A407A01EE7F
:100D2000900A21EE001AF8EE611A01EEA01ABCEE4C
:100D3000C11A11EE100A48729AF80A0001EE100A60
:100D40000098B8EE411A807A21EE000A01EE100AEE
:100D5000B8EE411A01EE200ABCEEC00A10EE100AED
:100D600088727F1CBFB2082F8ED309F101001FFAD1
:100D700080F9B9F1080FFFF4BAAC8BE5029800EBEB
:100D8000080101980B7A404403724A7A4272897AC8
:100D90000AE0FFE701989AF80820404402729AF8A6
:100DA000091041729AF80A108172DAE7014800F0DE
:100DB00067B800002008002001681823CAB2103A62
:100DC000B2FBF3F2054B6FF30901032A9B5CC36589
:100DD00000D9091D81650846704700005A30000897
:100DE00010B5014600208B698A6A4FF0C07453B178
:100DF000B3F5005F15D072B1012A0CD0022A0AD0D7
:100E0000032A09D104E01AB1012A06D0022A03D12B
:100E1000C96AC90100D5012010BDC96AA142FAD032
:100E200010BD002AF7D0012AF2D0022AF3D0032AFB
:100E3000F3D010BD30B50468256825F48025256001
:100E4000046863608368402B036803D0996000687E
:100E5000C26030BD9A600068C16030BD704700005C
:100E6000054900BF91F85120012AFBD101464FF4FA
:100E7000C062014800F03EBEC807002072B6FEE71F
:100E80002DE9F84304464FF00009CDF8009063487F
:100E90004FF41651A56D0068B0FBF1F72E6894F879
:100EA0005C10082000FA01F131420FD021680A6875
:100EB00052070BD50A6822F004020A6094F85C100D
:100EC0008840A860606D40F00100606594F85C1097
:100ED0004FF0010808FA01F0304208D02168496952
:100EE000090604D5A860606D40F00200606594F8C2
:100EF0005C1004208840304208D0216809688907C6
:100F000004D5A860606D40F00400606594F85C1042
:100F100010208840304218D021680968090714D58C
:100F2000A86020680168490304D50068000308D55B
:100F3000A16C07E00168C90503D4016821F008012C
:100F40000160216C09B12046884794F85C1020208C
:100F50008840304231D021680968C9062DD5A86083
:100F600094F8350005282068016806D0490347D564
:100F7000006800031DD4616C1CE021F016010160C3
:100F80002068416921F080014161206C08B9A06CA2
:100F900020B12068016821F00801016094F85C101C
:100FA0003F208840A86084F8358084F83490216D13
:100FB0001FE0E16B09B120468847606D00282BD007
:100FC000606DC00714D0052084F8350020680168E2
:100FD00021F0010101600098401C0090B84203D844
:100FE00020680068C007F6D184F8358084F8349012
:100FF000E16C002910D001B02046BDE8F04308475D
:101000000168C905D5D4016821F01001016084F898
:10101000358084F83490CCE7BDE8F88324000020C4
:101020002DE9F041044600F095F906465CB1022036
:1010300084F83500002584F834502068016821F0D8
:10104000010101600DE00120BDE8F08100F082F9AE
:10105000801B052805D920206065032084F8350011
:10106000F2E720680068C007F0D1226811682048C4
:101070000140D4E901031843D4E90336334318434C
:1010800063691843A3691843E3691843236A184343
:101090000843616A042903D1D4E90B1319430843B7
:1010A000106020684069666A20F0070130460E43F0
:1010B000012704280CD1A06A0643E06A40B120460B
:1010C000FFF78EFE20B14020606584F83570BAE7E6
:1010D000206846612046FFF76FFE94F85C203F21B0
:1010E00091408160656584F835700020ACE70000B0
:1010F0003F8010F02DE9F0410446866D90F83400F1
:10110000002501280DD0012084F8340094F83570B2
:101110000020012F07D084F8340002252846BDE8BE
:10112000F0810220FBE7022784F8357060652046D5
:10113000FFF780FE94F85C103F208840B060206884
:10114000016841F016010160206C20B1206801683F
:1011500041F0080101602068016841F0010101606F
:10116000DCE700002DE9F84FDFF8BCA100220125E3
:1011700003264FF00F090AF1040BAAF1040E00BF79
:101180000B6805FA02F42340A34270D10F7907F0EF
:101190000307012F01D0022F16D187684FEA4208BA
:1011A00006FA08FC27EA0C07D1F80CC00CFA08FC78
:1011B0004CEA070CC0F808C04768A7430C79C4F391
:1011C000001494403C4344600C79E443A4070AD0E3
:1011D000C4684FEA420C06FA0CF7BC438F6807FA62
:1011E0000CF72743C7600C7904F00304022C12D1DA
:1011F000D40800EB840CDCF820405707FF0E09FAF6
:1012000007F824EA0804D1F8108008FA07F848EA39
:101210000408CCF8208004684FEA420C06FA0CF768
:10122000BC430F7907F0030707FA0CF72743076061
:101230004C6814F4403F70D03C4C276847F480471A
:101240002760246822F0030704F480440094384C9B
:1012500007EB040CDCF8084897074FEA177809FAFF
:1012600008F7BC43334FB84202D1002724E054E0D2
:10127000314FB84201D101271EE0304FB84201D1B1
:10128000022719E02E4FB84201D1032714E02D4F59
:10129000B84201D104270FE02B4FB84201D10527F6
:1012A0000AE02A4FB84201D1062705E0284FB8428C
:1012B00001D1072700E0082707FA08F72743CCF8F1
:1012C0000878DAF800405746D1F804C09C435FEA3A
:1012D000CC2C00D51C433C60DBF800405F46D1F8C5
:1012E00004C09C435FEA8C2C00D51C433C60DEF8B4
:1012F00000407746D1F804C09C435FEA8C3C00D59F
:101300001C433C60084F083F3C68D1F804C09C4334
:101310005FEACC3C00D51C433C60521C102AFFF411
:101320002FAFBDE8F88F0000083C01404438024070
:10133000003001400000024000040240000802406A
:10134000000C02400010024000140240001802404D
:10135000001C02400148806870470000180000200F
:1013600002488168027811448160704718000020AB
:101370000B4810B5016841F400710160016841F447
:1013800080610160016841F480710160032000F018
:101390006FF80F2000F006F800F024F8002010BDD0
:1013A000003C024070B50D4D04464FF47A71287828
:1013B000B1FBF0F00A490968B1FBF0F000F002FC63
:1013C00048B9102C07D200222146501E00F030F8F8
:1013D00000206C6070BD012070BD0000180000206E
:1013E000240000200A4808B5016841F480410160EA
:1013F000006800F4804000900548001F016841F03B
:1014000080510160006800F08050009008BD00002D
:1014100044380240002809DB00F01F0201219140FE
:101420004009800000F1E020C0F800117047000082
:10143000F0B40E4B1B680C46C3F30223C3F107053F
:10144000042D00D90425191D072901D2002300E02D
:10145000DB1E012606FA05F1491E214099409E40F7
:10146000761E16403143F0BC01F07CBB0CED00E071
:10147000064900F0070208684FF6FF03184040EAEB
:101480000220034A10430860704700000CED00E0A2
:101490000000FA052DE9F0470E46050065D0DFF89B
:1014A0001481D8F80000F7B200F00700B04207D26C
:1014B00088F80070D8F8000000F00700B04254D15E
:1014C00028683D4C810712D5400703D5206840F4B9
:1014D000E05020602878000703D5206840F4604081
:1014E00020602068A96820F0F00008432060287878
:1014F000C0072DD0304968680839012812D0022869
:1015000013D0032811D00968890700292DDA216832
:1015100021F0030101432160FFF71CFF814641F2E6
:10152000883A0EE009688903EFE709688901ECE76A
:10153000FFF710FFA0EB0901514502D90320BDE8D8
:10154000F0872068696800F00C00B0EB810FEFD1E4
:10155000D8F80010404601F00701B14207D90770E2
:10156000006800F00700B04201D00120E7E72878CA
:10157000400705D52068E96820F4E0500843206062
:101580002878000706D52068296920F4604040EAE1
:10159000C100206000F018F82168084AC1F3031167
:1015A000515CC8400649086006480068FFF7FAFE2B
:1015B0000020C4E7003C02400838024062300008C6
:1015C000240000201C000020154810B5006810F011
:1015D0000C02144813D04110042A0FD0082A0ED14F
:1015E0000F4C241F2268236802F03F025B0207D5DC
:1015F0002068C0F38810A0FB010106E0084610BD7A
:101600002168C1F38811A1FB00010023FEF786FECB
:101610002168C1F30141491C4900B0FBF1F010BD44
:10162000083802400024F4002DE9F84F04006ED081
:101630002078DFF84C93C007A9F104054AD009F1DE
:1016400004000168C1F38101012908D00068C0F3DA
:10165000810002280AD1D9F80000400206D5286886
:10166000800337D560680028E1D033E06068B0F5CA
:10167000803F10D0B0F5A02F286810D020F4803023
:101680002860286820F4802028606068A8B1FFF7EF
:1016900061FE06460DE0286840F48030F4E740F42F
:1016A00080202860F7E700BFFFF754FE801B642806
:1016B00073D828688003F7D50CE0FFF74BFE064689
:1016C00005E000BFFFF746FE801B6428F0D82868BD
:1016D0008003F7D42078DFF8AC8280074FF0000A4F
:1016E0003ED5A748001D016811F00C0F08D0006816
:1016F000C0F3810002280BD1D9F80000400207D4C2
:101700002868800716D5E068012800D112E033E18F
:10171000E068B8B10120C8F80000FFF71BFE0646DC
:1017200005E000BFFFF716FE801B0228C0D828681E
:101730008007F7D52868216920F0F80040EAC10049
:1017400028600DE0C8F800A0FFF704FE064604E09C
:10175000FFF700FE801B02281FD828688007F7D4F7
:101760002078000722D5864F87486169703771B1AC
:1017700001210160FFF7EEFD064604E0FFF7EAFDF8
:10178000801B022809D838688007F7D50EE0C0F81A
:1017900000A0FFF7DFFD064605E082E0FFF7DAFD77
:1017A000801B02287DD838688007F7D4207840074E
:1017B00068D5DFF8CCB100270BF13C0BDBF800005B
:1017C000C0000BD4DBF8001041F08051CBF80010C2
:1017D000DBF80000012700F0805000906B4E30686D
:1017E000C00510D4306840F480703060FFF7B2FD5F
:1017F000009005E0FFF7AEFD0099401A022850D88E
:101800003068C005F6D55E4EA0686C3601280FD052
:101810000528306810D020F001003060306820F0DA
:1018200004003060A068B8B1FFF794FD00900FE0AD
:10183000306840F00100F4E740F004003060F7E762
:10184000FFF788FD0099411A41F28830814266D83D
:1018500030688007F4D50EE0FFF77CFD009007E0CC
:10186000FFF778FD0099411A41F28830814256D83D
:1018700030688007F4D42FB1DBF8001021F08051DC
:10188000CBF80010A069C8B33D49091D0968C1F330
:10189000810102294AD00228504607D0C8F86000CA
:1018A00000E03CE0FFF756FD04463BE04746C8F841
:1018B0006000FFF74FFD064605E000BFFFF74AFD59
:1018C000801B02282BD828688001F7D4D4E90701AF
:1018D0000843A16A2E4A490802EB0141626A41EAC3
:1018E0008211084394F82C1040EA0161C9F80010F5
:1018F00001203866FFF72EFD044606E03EE000BFFB
:10190000FFF728FD001B022809D828688001F7D5B9
:1019100034E000BFFFF71EFD001B022802D90320A0
:10192000BDE8F88F28688001F4D427E00128F7D0BB
:10193000D9F80000E26900F4800191421CD1226ACA
:1019400000F03F01914217D147F6C071626A014031
:10195000B1EB821F10D1A26A4FF0FF3300F4403187
:1019600003EB5202B1EB024F06D194F82C1000F0B9
:101970007060B0EB016F01D00120D1E70020CFE70C
:101980000438024000004742800E47420070004089
:101990000000FFFF704770B5040009D0606A0025A1
:1019A00040B125616561A56294F8510040B10CE039
:1019B000012070BD6068B0F5827FF4D0E561F2E788
:1019C00084F85050204600F045F8022084F8510079
:1019D0002068016821F040010160A088218900F49D
:1019E000827001F404410843A18901F400610843B5
:1019F000217C01F002010843217D01F0010108432F
:101A0000218B01F400710843217F01F03801084364
:101A100094F8201001F080010843218D01F4005159
:101A2000084321680860A069042101EA104094F885
:101A3000241001F010010843216848602068C16942
:101A400021F40061C1616565012084F85100002026
:101A500070BD000070B586B0064614216846FEF7DA
:101A6000F6FC1F493068884238D11E4800250168BD
:101A700041F480510160006800F4805005901948DD
:101A80001438016841F0010101600068694600F006
:101A900001000590A02000900220CDE9010503205F
:101AA0000390052004901048FFF75CFB104C0F4892
:101AB00020604FF0C06060604020C4E90205000172
:101AC000C4E90405A561E561256220466562FFF76A
:101AD000A7FA08B1FFF7D2F9B464A66306B070BDE7
:101AE0000030014044380240000002405864024087
:101AF0002008002070B5044690F850000026012808
:101B000009D0012084F8500094F8510000250128E4
:101B100003D002264AE0022070BD89B182B10320C1
:101B200084F8510065652163A286E286A563656439
:101B30002564A587E587A068B0F5004F02D00BE0CB
:101B4000012633E02068016821F04001016020682F
:101B5000016841F480410160A16C16480864A16CE1
:101B60001548C863A16C1548C864A06C0565E38E70
:101B70002268216B0C32A06CFFF7BCFA20B1606DBB
:101B800040F010006065DBE720680168490603D477
:101B9000016841F0400101602068416841F0200186
:101BA00041602068416841F00201416084F8505072
:101BB000304670BD2B21000835210008092100089E
:101BC0007047704710B5401EB0F1807F01D30120EF
:101BD00010BD4FF0E02460610F21601700F0C2FFDC
:101BE0000020A06107202061002010BD70477047D1
:101BF00070B590F83C20012A32D0012480F83C4096
:101C0000022280F83D2003685A689D6822F0700621
:101C10000A6832435A60134B02689A4214D0B2F1F8
:101C2000804F11D0104B9A420ED0104B9A420BD0DD
:101C30000F4B9A4208D00F4B9A4205D00E4B9A4256
:101C400002D00E4B9A4204D1496825F08003194313
:101C5000916080F83D40002180F83C10084670BD3E
:101C6000022070BD00000140000400400008004058
:101C7000000C0040000401400040014000180040FA
:101C800010B5040003D094F83D0010B107E0012026
:101C900010BD002084F83C00204600F01FF8022010
:101CA00084F83D00211D206800F092FB012084F89B
:101CB000460084F83E0084F83F0084F8400084F831
:101CC000410084F8420084F8430084F8440084F81A
:101CD000450084F83D00002010BD000008B50068F4
:101CE0000B49884212D10B48016841F002010160A2
:101CF0000068002200F00200009011461D20FFF74E
:101D000097FBBDE808401D20FFF784BB08BD00001D
:101D1000000400404038024090F83D10012901D0F5
:101D200001207047022180F83D100168CA6842F026
:101D30000102CA6000681149884214D0B0F1804F96
:101D400011D00F4988420ED00E4988420BD00E495F
:101D5000884208D00D49884205D00D49884202D0FA
:101D60000C49884204D1816801F00701062903D09B
:101D7000016841F00101016000207047000001404E
:101D80000004004000080040000C00400004014036
:101D9000004001400018004070B5044690F83C0037
:101DA0000025012817D0012684F83C60022084F821
:101DB0003D002068826822F0770222F47F42826030
:101DC0000868502838D00DDC20284FD005DC90B3AF
:101DD000102811D14AE0022070BD302846D040289A
:101DE0000AD13BE060282FD070280DD0B0F5805F7D
:101DF00003D0B0F5005F12D0012584F83D600020CB
:101E000084F83C00284670BDCB68D1E901212068E8
:101E100000F04AFB2068816841F0770109E0CB6857
:101E2000D1E90121206800F03FFB2068816841F47E
:101E300080418160E1E719E0CA684968206800F0E4
:101E400045FB5021206806E0CA684968206800F018
:101E50004EFB6021206800F031FBCEE7CA6849687C
:101E6000206800F033FB40212068F4E72268014637
:101E70001046F0E770472DE9F04104460068C66857
:101E800005694FF00007A90713D5B10711D5F91E51
:101E9000016101202077206880698007204602D0F8
:101EA000FFF7E8FF04E000F07EF8204600F07CF841
:101EB0002777680716D5700714D521686FF00400DE
:101EC0000861022020772068806910F4407F204656
:101ED00002D0FFF7CFFF04E000F065F8204600F0E5
:101EE00063F82777280715D5300713D521686FF0D9
:101EF00008000861042020772068C0698007204618
:101F000002D0FFF7B7FF04E000F04DF8204600F0E4
:101F10004BF82777E80616D5F00614D521686FF040
:101F200010000861082020772068C06910F4407F05
:101F3000204602D0FFF79EFF04E000F034F8204670
:101F400000F032F82777E80708D0F00706D02168BC
:101F50006FF001000861204600F028F8280608D537
:101F6000300606D521686FF0800008612046FFF733
:101F70003DFE680608D5700606D521686FF0400062
:101F80000861204600F01EF8A8060AD5B00608D55C
:101F900021686FF0200008612046BDE8F041FFF79E
:101FA00026BEBDE8F08170477047000003498842B3
:101FB00003D103490888401C08807047800800202E
:101FC000140000207047FEE7094808B5016841F495
:101FD000800101600068002200F48000009011463A
:101FE0003B20FFF725FABDE808403B20FFF712BA77
:101FF00030380240094808B5016841F080010160AD
:10200000016801F080010091016841F00101016067
:10201000006800F00100009008BD00003038024068
:10202000104810B50E4901604FF4827141600021E3
:1020300081600122C160C0E904125202826118224B
:10204000C0E90721416281620A21C162FFF7A3FC56
:10205000002803D0BDE81040FEF710BF10BD0000FF
:1020600000300140C807002010B586B00024174892
:10207000009401940294039404941349059401601C
:102080005321C0E9011440F2E731C0E90314802173
:102090008161FFF7F5FD08B1FEF7F0FE4FF48050C7
:1020A000009069460948FFF777FE08B1FEF7E6FEA3
:1020B000049404A905480594FFF79AFD002801D06F
:1020C000FEF7DCFE06B010BD0004004080080020D2
:1020D000FEE7FEE770472DE9F0470746DDE908898E
:1020E0001C4615460E46CA20FEF7C2F8002809D045
:1020F00080F8C87080F8C96005804480A0F804802A
:10210000A0F80690BDE8F08710B5806B01684A68BA
:1021100022F003024A60416D41F010014165012146
:1021200080F85110FFF736FC10BD10B5806BFFF73B
:1021300048FD10BD38B50546846BFFF70BF9024624
:1021400028680068C00523D42068416821F0200178
:1021500041602068416821F002014160642120460D
:1021600000F01AF818B1606D40F020006065A068BA
:10217000002118B92068C26880680090E1860120BB
:1021800084F85100606D18B12046FFF703FC38BD9C
:102190002046FFF715FD38BDF8B515460E460B462F
:1021A000009204460122022100F02CF8A0B9134845
:1021B00013490068B0FBF1F04FF47A714843009086
:1021C0006068B0F5827F0DD1334600228021204621
:1021D000009500F017F870B1606D40F02000606568
:1021E0000320F8BD009830B1401E00902068806840
:1021F000C0430006F6D50020F8BD000024000020F2
:1022000000366E012DE9F8431E4691468846044685
:10221000089DFFF79FF8401B351AFFF79BF807460C
:1022200025480068C0F3CB30684338E0701C37D0D5
:10223000FFF790F8C01BA84203D215B1009860B315
:102240002CE02068416821F0E00141606068B0F551
:10225000827F0BD1A068B0F5004F02D0B0F5806F3F
:1022600004D12068016821F040010160A06AB0F546
:10227000005F09D12068016821F4005101602068E5
:10228000016841F400510160012084F851000020F0
:1022900084F850000320BDE8F8830025401E00901C
:1022A0002068816838EA010004D000214945BDD189
:1022B0000020F0E70121F9E72400002070472DE914
:1022C000F04104461D4616460F46D620FDF7D0FFC6
:1022D000002820D02188A0F8CE106188A0F8D01066
:1022E000A0F8D260A0F8D45010F8CC1F67F34701D3
:1022F00000F81E19218820F8AC1C618820F8AA1C5F
:1023000020F8A86C20F8A65C94F8C810017794F81F
:10231000C9104177AE38BDE8F081FFF721B8000061
:1023200030B593B030216846FEF791F814210CA81F
:10233000FEF78DF81D480025016841F080510160CD
:10234000006800F0805011901948016841F4804104
:1023500001600068022400F4804011900120039085
:1023600010200490009406940820CDE90750A8207E
:10237000CDE9090404200B906846FFF755F908B130
:1023800072B6FEE70CA90F2081E831004FF4A0508F
:102390000F904FF48050109005210CA8FFF77AF8A9
:1023A000002801D072B6FEE713B030BD40380240BD
:1023B000007000400248016841F4700101607047FC
:1023C00088ED00E00148FFF756BD000080080020BE
:1023D000F0B50268294C2A4D2A4E2B4F2B4B4FF05B
:1023E000804CA04209D0604507D0A84205D0B04239
:1023F00003D0B84201D0984204D122F0700E4A684E
:1024000042EA0E02A0421BD0604519D0A84217D064
:10241000B04215D0B84213D0984211D01C4DA842FA
:102420000ED01C4DA8420BD01B4DA84208D01B4D0E
:10243000A84205D01A4DA84202D01A4DA84203D195
:1024400022F44075CA682A434D6922F080022A436B
:1024500002608A68C2620A688262A04201D0984221
:1024600001D109690163012141610169C90703D0F3
:10247000016921F001010161F0BD0000000001408F
:102480000004004000080040000C0040000401402F
:102490000040014000440140004801400018004055
:1024A000001C00400020004010B5846842EA03226E
:1024B00024F47F440A432243826010BD826822F0E4
:1024C00070020A4342F007018160704710B5036A49
:1024D000046A24F001040462846924F0F00444EAEC
:1024E000021423F00A020A438461026210BD10B58F
:1024F000036A046A24F010040462846923F0A003D0
:1025000024F4704444EA023243EA01118261016218
:1025100010BD0000044C00252088AA28FCD300F040
:1025200031FB2580F8E7000014000020FEE72DE9CC
:10253000F04F00238B4682461A4602EB42000021F0
:102540000BEBC006002001EB4105741903EB4309B6
:102550006778C740FF0701D0FC2700E0C0274FEA9B
:10256000570CC0EBC90808EB0A0787F807C016F834
:1025700005C02CFA00FC5FEACC7C02D04FF0FC0CCA
:1025800001E04FF0C00C4FEA5C0C87F80FC094F8E4
:1025900002C02CFA00FC5FEACC7C02D04FF0FC0CAD
:1025A00001E04FF0C00C4FEA5C0C401C87F817C0EC
:1025B0000828CDDB491C5B1C0829C3DB521C082AF8
:1025C000BBDBBDE8F08F2DE9FF4F85B00400DDE9EE
:1025D00012157ED001200227032630394FF004085F
:1025E0004FF0050B4FF0060A4FF007090A2970D289
:1025F000DFE801F0054B558FC9FDFBFAF9F861885A
:102600002288CDE90215CDE900020DF11809204616
:1026100099E80E0000F01BFA6188208801AA009753
:1026200082E8230099E80E00204600F010FA608846
:10263000218800960395CDE9011099E80E00204607
:1026400000F005FA60882188CDF800800395CDE977
:10265000011099E80E00204600F0F9F96088218801
:10266000CDF800B00395CDE9011099E80E002046A1
:1026700000F0EDF960882188CDF800A00395CDE940
:10268000011099E80E002046DCE16088218800975F
:102690000395CDE9011020460DF1180829E1628863
:1026A00021888DE8270006AE204696E80E0000F04F
:1026B000CEF96088218800970395CDE9011096E84E
:1026C0000E00204600F0C3F961882288CDF8009002
:1026D00000E0B9E10395CDE9012196E80E0020461E
:1026E00000F0B5F960882188CDF800800395CDE928
:1026F000011096E80E00204600F0A9F961882088B4
:1027000001AACDF800B082E8230096E80E0020462A
:1027100098E161882288CDE90215CDE900020DF12A
:10272000180A20469AE80E0000F091F96088218886
:1027300000970395CDE901109AE80E00204600F0BD
:1027400086F96088218800960395CDE901109AE802
:102750000E00204600F07BF96188208801AACDF8A0
:10276000008082E823009AE80E00204600F06FF90E
:1027700060882188CDF800900395CDE901109AE892
:102780000E0020465EE16088218800970395CDE920
:1027900001100DF11808204698E80E0000F057F9D6
:1027A0006088218800960395CDE9011098E80E0015
:1027B000204600F04CF960882188CDF800A00395F0
:1027C000CDE9011098E80E00204600F040F960883D
:1027D0002188CDF800900395CDE9011098E80E000E
:1027E00020462FE1E9E08CE071E02AE0FFE7628813
:1027F00021888DE8270006AF204697E80E0000F0FC
:1028000026F96088218800960395CDE9011097E8A4
:102810000E00204600F01BF961882288CDF8008068
:102820000395CDE9012197E80E00204600F00FF94D
:102830006288208801A9CDF800A081E82500204603
:1028400036E061882288CDE90215CDE9000206AFA5
:10285000204697E80E0000F0FAF86088218800967C
:102860000395CDE9011097E80E00204600F0EFF83F
:102870006188208801AACDF8008082E8230097E8CB
:102880000E00204600F0E3F861882288CDF800B001
:102890000395CDE9012197E80E00204600F0D7F816
:1028A00060882188CDF800A00395CDE9011020466D
:1028B00097E80E0000F0CBF860882188CDF80090F2
:1028C0000395CDE9011097E80E002046BAE0628832
:1028D00021888DE827000DF11808204698E80E00A1
:1028E00000F0B5F86088218800970395CDE90110C4
:1028F000204698E80E0000F0AAF86088218800962B
:1029000069E7628821888DE827000DF1180C2046C0
:102910009CE80E0000F09BF86188208801AA0097CF
:1029200082E823000DF1180C20469CE80E0000F010
:102930008EF86088218800960395CDE901100DF18D
:10294000180C20469CE80E0000F081F86088228870
:10295000CDF800800395CDE901200DF1180C20463B
:102960009CE80E0000F073F860882188CDF800B074
:102970000395CDE901100DF1180C20469CE80E00DE
:1029800000F065F860882188CDF800A00395CDE9B6
:1029900001100DF1180C20469CE80E0000F057F8CD
:1029A00060882188CDF800900395CDE901100DF1E4
:1029B000180C20469CE80E0044E061882288CDE98E
:1029C0000215CDE900020DF1180B20469BE80E0020
:1029D00000F03DF86088218800970395CDE901104B
:1029E0009BE80E00204600F032F8608821880096AF
:1029F0000395CDE901109BE80E00204600F027F872
:102A000060882288CDF800800395CDE901209BE8FD
:102A10000E00204600F01BF86188208801AACDF83E
:102A200000A082E823009BE80E00204600F00FF88B
:102A300060882188CDF800900395CDE901109BE8CE
:102A40000E00204600F003F809B0BDE8F08FFEB597
:102A50000E460400DDE90910089F0B9D5AD08DF841
:102A600008608DF809208DF80A3002AB012D0DD0D9
:102A7000002D4FD1821C8D1C0E1D92B2082F43D207
:102A8000DFE807F042383C494E53575B021DCD1C2E
:102A90008E1D92B2082F0FD2DFE807F00E04081443
:102AA000191E2226CDE900230B4621E0CDE90023A3
:102AB000ABB2204600F059FA2088001DA080608843
:102AC000801D26E0CDE90023B3B2A9B2F1E7CDE93C
:102AD0000023B3B2B1B20BE0CDE90003B3B206E01C
:102AE000CDE90003ABB203E0CDE90023ABB2A9B25C
:102AF0000246DEE7CDE900230B4622E0CDE90023C4
:102B0000ABB2204600F031FA2088001DA08060881A
:102B1000C01CE080FEBDCDE90023B3B2A9B2F0E74E
:102B2000CDE90023B3B2B1B20BE0CDE90003B3B2FB
:102B300006E0CDE90003ABB203E0CDE90023ABB280
:102B4000A9B20246DDE730B501EB410100EBC1005F
:102B5000DDE9034502EB4201084400F8133D4470EF
:102B6000857030BD0907090E002804DB00F1E02064
:102B700080F80014704700F00F0000F1E02080F8AA
:102B8000141D7047FEB5394C00256078C0BB38482D
:102B90000221082700F8CA1F64214170601DC61E6B
:102BA0000570457085703170142070700A20B07007
:102BB000012300971A46322102200197FFF78BFA72
:102BC0002061032300971A46462101200197FFF751
:102BD00082FAA0600720CDE90006022202950823B0
:102BE0001146206900F0F2F9062307220021A068AF
:102BF000FFF765FBE0604FF4C0611E48FDF705FC80
:102C00002078CDE900050A2364221421A068FFF78B
:102C1000DAFCD4E9020100F053F8E16891F8CC0045
:102C2000C20706D0227820F00100521C227081F8E1
:102C3000CC002078392801D9302020700B4B0C4A69
:102C40005B1DCA3A891C2069FDF728FD084909481F
:102C5000C239FFF76CFC0748FEF702F9A068C021F3
:102C60000830FDF7D2FB01206070FEBD000000209F
:102C7000F2000020C801002002780B789A4209D1A6
:102C800042784B789A4205D180788978884201D180
:102C90000120704700207047FEF76AFBFFF740FBFA
:102CA000FFF7A8F9FFF790F9FFF7BAF9FFF7DCF99A
:102CB0000248FFF731F8FFF72DFCFEE780080020FF
:102CC00070B500297DD000287BD091F8CC20520827
:102CD0000AD0012A53D0022A74D0032A71D191F864
:102CE000D220521ED3B20FE191F8D020521ED3B29F
:102CF00016E0D2B203EB43050CE000BF02EB420446
:102D000001EBC4042C44521CB4F80D606681E67BD0
:102D10002673D2B2B1F8D2409442EFD85B1CDBB23A
:102D2000B1F8D420521E9A4291F8CE20A2F10102AD
:102D3000DFDC15E0B1F8D45002EB420301EBC30431
:102D400005EB45052C44B1F9005000EBC30305EB3E
:102D500045052B44521C1D89A4F807509B7A6372C9
:102D6000B1F8D230D2B29342E4D80A88521C12B2DF
:102D70000A80C3885B1E9A4256DD40884CE091F879
:102D8000D420521ED3B215E0D2B203EB43050BE0C0
:102D900002EB420401EBC4042C44521CB4F807605B
:102DA0006681667A2673D2B2B1F8D2409442EFD8E7
:102DB0005B1EDBB2B1F8D020521E9A4291F8CE20B1
:102DC00001E031E031E0A2F10102DDDB16E000BFFD
:102DD000B1F8D04002EB420301EBC30504EB44041D
:102DE0002C44B1F9005000EBC30305EB45052B441F
:102DF000521C1D89A4F807509B7A6372B1F8D23037
:102E0000D2B29342E4D80A88521E12B20A80438892
:102E10005B1E9A4208DAC088401E088091F8CC00F8
:102E200040F0010081F8CC0070BD91F8CE20521E18
:102E3000D3B219E091F8D02003EB4304521ED2B272
:102E400001EBC4040AE000BF02EB42052544521C1A
:102E50006E8C6E8195F824602E73D2B2B1F8D45086
:102E60009542F1D85B1CDBB2B1F8D220521E9A42D7
:102E7000E0DC91F8CE20521E15E000BF03EB4303C7
:102E8000B1F9006001EBC30402EB420306EB460616
:102E90001C4400EBC6063344521C1E8924F80E6CF9
:102EA0009B7A04F80C3CB1F8D230D2B29342E5D808
:102EB00008889AB2401C00B2521E08809042B3DDCE
:102EC000B1F8CE00401E21F8AE0B887F40F0010023
:102ED000887770BD91F8D02003EB4304521ED2B224
:102EE00001EBC4040AE000BF02EB42052544521C7A
:102EF00035F80E6DD2B22E83AE78AE76B1F8D450DE
:102F00009542F1D85B1EDBB2B1F8CE20521E9A4238
:102F1000E0DB91F8CE20521E17E000BFB1F8CE30B2
:102F2000B1F9006003EB430301EBC30402EB42037E
:102F300006EB46061C4400EBC6063344521C1E89B1
:102F400024F80E6C9B7A04F80C3CB1F8D230D2B263
:102F50009342E3D80888401E00B20880B1F8CE2022
:102F6000521E9042B5DA98B256E72DE9FC471D464D
:102F7000DDE90A6791465FEA000A25D0002F23D0D9
:102F8000681A21D4B6EB09001ED4082D00D90825F3
:102F9000082E00D90826C8B213E009F0FF040BE0A0
:102FA000B9787878CDE900013B7822464146504611
:102FB000FFF7C9FD641CE4B2B442F1D908F1010085
:102FC000C0B28046A842E8D9BDE8FC872DE9FC479D
:102FD0001D46DDE90A470C9E904689465FEA000AD5
:102FE00034D0A5EB0900002830DDA4EB0800002850
:102FF0002CDD082D00D90825082C00D9082408EB61
:10300000060080B2CDE900072B46424649465046AD
:10301000FFF7ABFFA01BCDE9004782B22B46494624
:103020005046FFF7A2FF09EB0600CDE9004783B247
:10303000424649465046FFF798FFA81BCDE9004796
:1030400081B22B4642465046FFF78FFFBDE8FC8712
:103050004FF04070E1EE100A7047000610160006AF
:103060001016000000000000000001020304060723
:10307000080900009430000800000020280000002B
:10308000C4010008BC300008280000200011000026
:10309000E001000830000000000000000000000017
:1030A000000000000000000000000000010000001F
:0C30B00010000000000000000024F400EC
:040000050800018965
:00000001FF
