:020000040800F2
:100000005011002029020008BB1C0008AF1B00088B
:10001000B91C0008630400088920000800000000E3
:10002000000000000000000000000000751E000835
:10003000450A000800000000BD1C0008771E0008EB
:10004000430200084302000843020008430200087C
:10005000430200084302000843020008430200086C
:10006000430200084302000843020008430200085C
:10007000430200084302000843020008430200084C
:10008000430200084302000843020008430200083C
:10009000430200084302000843020008430200082C
:1000A000430200084302000843020008430200081C
:1000B00043020008211F0008430200084302000811
:1000C00043020008430200084302000843020008FC
:1000D00043020008430200084302000843020008EC
:1000E00043020008430200084302000843020008DC
:1000F00043020008430200084302000843020008CC
:1001000043020008430200084302000843020008BB
:1001100043020008430200084302000843020008AB
:100120004302000843020008430200089509000842
:10013000430200084302000843020008430200088B
:10014000430200084302000843020008430200087B
:10015000430200084302000843020008430200086B
:10016000430200084302000843020008430200085B
:100170004302000843020008430200080000000098
:10018000430200084302000800F002F800F03CF8C7
:100190000AA090E8000C82448344AAF10107DA45E2
:1001A00001D100F031F8AFF2090EBAE80F0013F0F8
:1001B000010F18BFFB1A43F001031847D4280000B1
:1001C000F4280000103A24BF78C878C1FAD8520742
:1001D00024BF30C830C144BF04680C6070470000C1
:1001E0000023002400250026103A28BF78C1FBD840
:1001F000520728BF30C148BF0B6070471FB502F0DF
:1002000036FC1FBD10B510BD00F0F1F81146FFF728
:10021000F5FF02F011FB00F00FF903B4FFF7F2FF56
:1002200003BC00F017F9000009488047094800475F
:10023000FEE7FEE7FEE7FEE7FEE7FEE7FEE7FEE796
:10024000FEE7FEE704480549054A064B70470000F3
:10025000111F000889010008500B002050110020D8
:10026000500D0020500D002053EA020C00F0698070
:100270002DE9F04B4FF00006002B1FBFB3FA83F5BA
:1002800003FA05F424FA05F65E4012BF1643B2FAEB
:1002900082F502FA05F4C5F120051EBF22FA05FC1D
:1002A00044EA0C04203556EA044C4FEA144418BFC3
:1002B000641C4FF000084FF00009904271EB030CF2
:1002C00039D3002919BFB1FA81F701FA07F6B0FA5C
:1002D00080F700FA07F6C7F120071EBF20FA07FCD7
:1002E00046EA0C062037B6FBF4FCA7EB0507103FE7
:1002F00007F01F0BCBF120060CFA0BFB2CFA06F6CD
:1003000044BFB3460026202FA4BF5E464FF0000B2B
:100310005BEA060C08BF4FF0010B19EB0B09ABFBB6
:10032000027C48EB0608C01B06FB02CC0BFB03CC8F
:1003300071EB0C01C1E70B46024641464846BDE859
:10034000F08B13B54FF000004FF00001AFF30080C9
:10035000BDE81C4070474FF000020429C0F0128035
:1003600010F0030C00F01B80CCF1040CBCF1020F68
:1003700018BF00F8012BA8BF20F8022BA1EB0C013D
:1003800000F00DB85FEAC17C24BF00F8012B00F833
:10039000012B48BF00F8012B70474FF0000200B559
:1003A000134694469646203922BFA0E80C50A0E898
:1003B0000C50B1F12001BFF4F7AF090728BFA0E846
:1003C0000C5048BF0CC05DF804EB890028BF40F812
:1003D000042B08BF704748BF20F8022B11F0804F54
:1003E00018BF00F8012B704770477047704775467B
:1003F00000F02CF8AE4605006946534620F0070091
:10040000854618B020B5FFF71DFFBDE820404FF02E
:1004100000064FF000074FF000084FF0000B21F0EE
:100420000701AC46ACE8C009ACE8C009ACE8C009BB
:10043000ACE8C0098D46704710B50446AFF30080A4
:100440002046BDE81040FFF7E8BE000000487047B6
:10045000EC0A002001491820ABBEFEE7260002008E
:100460007047FEE72DE9FF4F06462DED028B83B066
:1004700090F8C1000D4664287DD895F8C100642825
:1004800079D896F8C00095F8C0109FEDFE8AF7EE77
:10049000008A884202D94FF0000804E04FF00000C3
:1004A000804669D3D6E108EB480007994FF0000772
:1004B00006EBC00B01EBC00905EBC00A07EB4704D4
:1004C0000BEB04000090089902F0A6F901287DD0FA
:1004D0000AEB04000190089902F09EF9012876D0F9
:1004E00095F8C10000EE900AF8EE600A80EE880AE6
:1004F00000EE900A1AF80400B8EE601AC1EE080A7D
:1005000001EE100A089838EEC00AB8EE411A0078D9
:1005100061EE201A01EE100AB8EE411A40EE011AFF
:10052000BCEEE11A11EE100A00F0FF0C09F804C04D
:100530000198407801EE100A0898B8EE411A407808
:1005400001EE900A21EE201AF8EE611A00EE211A4F
:10055000BCEEC11A11EE100AC2B209EB04004270DF
:100560000199897801EE101A0899B8EE411A897834
:1005700061EE200A01E066E083E001EE101AB8EEB9
:10058000411A40EE010ABCEEE00A10EE101ACBB29E
:10059000837096F8C11000EE101AF8EE400A80EE53
:1005A000880A00EE901A1BF80410B8EE601A01EEEB
:1005B000901AF8EE611AC1EE080A01EE10CA38EE80
:1005C000C00AB8EE411A21EE001A01E040E04CE00A
:1005D00000EEA11ABCEEC11A11EE101A01EE102A9B
:1005E00009F804100099B8EE411A497801EE901A02
:1005F00021EE001AF8EE611A00EEA11ABCEEC11A43
:1006000011EE101A01EE103A41700099B8EE411A3D
:10061000897821EE000A01EE101AB8EE411A00EEB8
:10062000810ABCEEC00A10EE101A81707F1CBFB2A6
:10063000082FFFF443AF08F101001FFA80F8B8F16A
:10064000080FFFF42AAF03B0BDEC028BBDE8FF8FAB
:100650001AF8041009F804100AEB040009EB04016D
:1006600042784A7080788870E0E71BF8041009F837
:1006700004100098417809EB0400417000998978D2
:10068000D3E708EB48000799002706EBC00B01EB06
:10069000C00905EBC00A00BF07EB47040BEB0400E1
:1006A0000090089902F0B8F801287DD00AEB040008
:1006B0000190089902F0B0F8012876D096F8C100B0
:1006C00009EB040C00EE100AF8EE400A80EE880AEE
:1006D00000EE900A1BF80400B8EE601AC1EE080A9A
:1006E00001EE100A089838EEC00AB8EE411A0078F8
:1006F00061EE201A01EE100AB8EE411A40EE011A1E
:10070000BCEEE11A11EE100AC3B209F804300098E9
:10071000407801EE100A0898B8EE411A407801EED0
:10072000900A21EE201AF8EE611A00EE211ABCEEB2
:10073000C11A11EE100AC1B28CF80110009880782D
:1007400001EE100A0898B8EE411A807861EE200A8E
:1007500001EE100AB8EE411A40EE010ABCEEE00AC2
:1007600010EE100AC2B28CF8022095F8C10000EE1B
:10077000100AF8EE400A80EE880A00EE900A1AF895
:100780000400B8EE601A01EE900AF8EE611AC1EEAC
:10079000080A01EE103A38EEC00AB8EE411A21EE0E
:1007A000001A00EEA11A01E03CE046E0BCEEC11ADE
:1007B00011EE100A01EE101A09F804000198B8EEC3
:1007C000411A407801EE900A21EE001AF8EE611A03
:1007D00000EEA11ABCEEC11A11EE101A01EE102A99
:1007E0008CF801100198B8EE411A807821EE000AC9
:1007F00001EE100AB8EE411A00EE810ABCEEC00A02
:1008000010EE101A8CF802107F1CBFB2082FFFF4F4
:1008100043AF08F101001FFA80F8B8F1080FFFF4A8
:1008200030AF10E71AF8041009F804100AEB0401BD
:1008300009EB04004A78427009E01BF8041009F83B
:1008400004100098417809EB040041700099897800
:100850008170D9E708EB48000799002706EBC00B29
:1008600001EBC00905EBC00A07EB47040BEB0400E2
:100870000090089901F0D0FF012870D00AEB040025
:10088000019001E00000C842089901F0C5FF01286D
:1008900073D096F8C10095F8C11000EE100AF8EE7A
:1008A000400A00EE101AB8EE400A70EE800A00EE20
:1008B000100A1BF80400B8EE401A81EE200A01EE7F
:1008C000100A1AF80400B8EE411A01EE900AF8EE88
:1008D000611A78EEC00A21EE001A01EEA01ABCEEF1
:1008E000C11A11EE100A09F804000098407801EED0
:1008F000100A0198B8EE411A407801EE900A21EEF4
:10090000001A09EB0400F8EE611A01EEA01ABCEE21
:10091000C11A11EE101A41700099897801EE101A6F
:100920000199B8EE411A897821EE000A01EE101AF9
:10093000B8EE411A01EE200ABCEEC00A10EE101A01
:1009400081707F1CBFB2082F8ED308F101001FFAFF
:1009500080F8B8F1080FFFF4A5AD74E6FFE71AF8C8
:10096000041009F804100AEB040009EB04014278B2
:100970004A7080788870E4E7FFE71BF8041009F8F4
:1009800004100098417809EB0400417000998978BF
:10099000D6E70000014800F067B80000440A0020D4
:1009A00001681823CAB2103AB2FBF3F2054B6FF399
:1009B0000901032A9B5CC36500D9091D81650846AE
:1009C00070470000782A000810B5014600208B69A6
:1009D0008A6A4FF0C07453B1B3F5005F15D072B19D
:1009E000012A0CD0022A0AD0032A09D104E01AB144
:1009F000012A06D0022A03D1C96AC90100D5012003
:100A000010BDC96AA142FAD010BD002AF7D0012A50
:100A1000F2D0022AF3D0032AF3D010BD30B5046817
:100A2000256825F480252560046863608368402B71
:100A3000036803D099600068C26030BD9A600068A6
:100A4000C16030BD70470000054900BF91F85120DA
:100A5000012AFBD101464FF4C062014800F03EBEBE
:100A6000EC09002072B6FEE72DE9F84304464FF08A
:100A70000009CDF8009063484FF41651A56D006849
:100A8000B0FBF1F72E6894F85C10082000FA01F131
:100A900031420FD021680A6852070BD50A6822F04C
:100AA00004020A6094F85C108840A860606D40F011
:100AB0000100606594F85C104FF0010808FA01F03D
:100AC000304208D021684969090604D5A860606DE4
:100AD00040F00200606594F85C10042088403042C9
:100AE00008D021680968890704D5A860606D40F0C6
:100AF0000400606594F85C1010208840304218D0E3
:100B000021680968090714D5A860206801684903AD
:100B100004D50068000308D5A16C07E00168C90589
:100B200003D4016821F008010160216C09B120465D
:100B3000884794F85C1020208840304231D02168EA
:100B40000968C9062DD5A86094F8350005282068E5
:100B5000016806D0490347D5006800031DD4616CC5
:100B60001CE021F0160101602068416921F080013C
:100B70004161206C08B9A06C20B12068016821F0A7
:100B80000801016094F85C103F208840A86084F858
:100B9000358084F83490216D1FE0E16B09B1204667
:100BA0008847606D00282BD0606DC00714D00520E9
:100BB00084F835002068016821F001010160009887
:100BC000401C0090B84203D820680068C007F6D1E6
:100BD00084F8358084F83490E16C002910D001B09D
:100BE0002046BDE8F04308470168C905D5D401682F
:100BF00021F01001016084F8358084F83490CCE74E
:100C0000BDE8F883140000202DE9F041044600F00F
:100C100095F906465CB1022084F83500002584F879
:100C200034502068016821F0010101600DE00120CD
:100C3000BDE8F08100F082F9801B052805D920204D
:100C40006065032084F83500F2E720680068C0077B
:100C5000F0D12268116820480140D4E9010318430B
:100C6000D4E903363343184363691843A36918432F
:100C7000E3691843236A18430843616A042903D1CE
:100C8000D4E90B1319430843106020684069666A71
:100C900020F0070130460E43012704280CD1A06A3A
:100CA0000643E06A40B12046FFF78EFE20B14020A7
:100CB000606584F83570BAE7206846612046FFF722
:100CC0006FFE94F85C203F2191408160656584F857
:100CD00035700020ACE700003F8010F02DE9F041B6
:100CE0000446866D90F83400002501280DD00120BF
:100CF00084F8340094F835700020012F07D084F870
:100D0000340002252846BDE8F0810220FBE70227D7
:100D100084F8357060652046FFF780FE94F85C101B
:100D20003F208840B0602068016841F016010160F2
:100D3000206C20B12068016841F008010160206842
:100D4000016841F001010160DCE700002DE9F84F86
:100D5000DFF8BCA10022012503264FF00F090AF19C
:100D6000040BAAF1040E00BF0B6805FA02F423403D
:100D7000A34270D10F7907F00307012F01D0022F92
:100D800016D187684FEA420806FA08FC27EA0C07E2
:100D9000D1F80CC00CFA08FC4CEA070CC0F808C0EB
:100DA0004768A7430C79C4F3001494403C43446063
:100DB0000C79E443A4070AD0C4684FEA420C06FA4F
:100DC0000CF7BC438F6807FA0CF72743C7600C7910
:100DD00004F00304022C12D1D40800EB840CDCF8DC
:100DE00020405707FF0E09FA07F824EA0804D1F853
:100DF000108008FA07F848EA0408CCF82080046854
:100E00004FEA420C06FA0CF7BC430F7907F00307D0
:100E100007FA0CF7274307604C6814F4403F70D082
:100E20003C4C276847F480472760246822F003077A
:100E300004F480440094384C07EB040CDCF80848B8
:100E400097074FEA177809FA08F7BC43334FB842BF
:100E500002D1002724E054E0314FB84201D10127EC
:100E60001EE0304FB84201D1022719E02E4FB842A0
:100E700001D1032714E02D4FB84201D104270FE020
:100E80002B4FB84201D105270AE02A4FB84201D1C1
:100E9000062705E0284FB84201D1072700E00827C0
:100EA00007FA08F72743CCF80878DAF800405746E5
:100EB000D1F804C09C435FEACC2C00D51C433C60B5
:100EC000DBF800405F46D1F804C09C435FEA8C2CFD
:100ED00000D51C433C60DEF800407746D1F804C0E2
:100EE0009C435FEA8C3C00D51C433C60084F083FA4
:100EF0003C68D1F804C09C435FEACC3C00D51C435D
:100F00003C60521C102AFFF42FAFBDE8F88F0000A0
:100F1000083C0140443802400030014000000240DB
:100F20000004024000080240000C02400010024091
:100F30000014024000180240001C02400148806872
:100F400070470000080000200248816802781144C0
:100F500081607047080000200B4810B5016841F41B
:100F600000710160016841F480610160016841F431
:100F700080710160032000F06FF80F2000F006F888
:100F800000F024F8002010BD003C024070B50D4D6B
:100F900004464FF47A712878B1FBF0F00A490968E9
:100FA000B1FBF0F000F002FC48B9102C07D200228F
:100FB0002146501E00F030F800206C6070BD01200A
:100FC00070BD000008000020140000200A4808B589
:100FD000016841F480410160006800F480400090A5
:100FE0000548001F016841F080510160006800F071
:100FF0008050009008BD000044380240002809DB02
:1010000000F01F02012191404009800000F1E02022
:10101000C0F8001170470000F0B40E4B1B680C467E
:10102000C3F30223C3F10705042D00D90425191DBC
:10103000072901D2002300E0DB1E012606FA05F194
:10104000491E214099409E40761E16403143F0BC17
:1010500001F06DBB0CED00E0064900F007020868E6
:101060004FF6FF03184040EA0220034A104308608D
:10107000704700000CED00E00000FA052DE9F04794
:101080000E46050065D0DFF81481D8F80000F7B2ED
:1010900000F00700B04207D288F80070D8F80000CE
:1010A00000F00700B04254D128683D4C810712D5AA
:1010B000400703D5206840F4E050206028780007FE
:1010C00003D5206840F4604020602068A96820F0C3
:1010D000F000084320602878C0072DD030496868A8
:1010E0000839012812D0022813D0032811D009682A
:1010F000890700292DDA216821F0030101432160CD
:10110000FFF71CFF814641F2883A0EE00968890327
:10111000EFE709688901ECE7FFF710FFA0EB090191
:10112000514502D90320BDE8F0872068696800F0C6
:101130000C00B0EB810FEFD1D8F80010404601F061
:101140000701B14207D90770006800F00700B042FC
:1011500001D00120E7E72878400705D52068E96835
:1011600020F4E050084320602878000706D5206866
:10117000296920F4604040EAC100206000F018F8BE
:101180002168084AC1F30311515CC8400649086050
:1011900006480068FFF7FAFE0020C4E7003C024062
:1011A00008380240802A0008140000200C000020AB
:1011B000154810B5006810F00C02144813D0411007
:1011C000042A0FD0082A0ED10F4C241F226823684E
:1011D00002F03F025B0207D52068C0F38810A0FB35
:1011E000010106E0084610BD2168C1F38811A1FB8A
:1011F00000010023FFF738F82168C1F30141491CC1
:101200004900B0FBF1F010BD083802400024F400A2
:101210002DE9F84F04006ED02078DFF84C93C0071A
:10122000A9F104054AD009F104000168C1F3810164
:10123000012908D00068C0F3810002280AD1D9F83A
:101240000000400206D52868800337D56068002872
:10125000E1D033E06068B0F5803F10D0B0F5A02F4A
:10126000286810D020F480302860286820F480207E
:1012700028606068A8B1FFF761FE06460DE02868A7
:1012800040F48030F4E740F480202860F7E700BFA6
:10129000FFF754FE801B642873D828688003F7D5B5
:1012A0000CE0FFF74BFE064605E000BFFFF746FEE9
:1012B000801B6428F0D828688003F7D42078DFF8F2
:1012C000AC8280074FF0000A3ED5A748001D016898
:1012D00011F00C0F08D00068C0F3810002280BD178
:1012E000D9F80000400207D42868800716D5E068C6
:1012F000012800D112E033E1E068B8B10120C8F85C
:101300000000FFF71BFE064605E000BFFFF716FED4
:10131000801B0228C0D828688007F7D52868216973
:1013200020F0F80040EAC10028600DE0C8F800A0F5
:10133000FFF704FE064604E0FFF700FE801B0228CC
:101340001FD828688007F7D42078000722D5864F59
:1013500087486169703771B101210160FFF7EEFDC7
:10136000064604E0FFF7EAFD801B022809D838682A
:101370008007F7D50EE0C0F800A0FFF7DFFD0646B6
:1013800005E082E0FFF7DAFD801B02287DD838688F
:101390008007F7D42078400768D5DFF8CCB1002764
:1013A0000BF13C0BDBF80000C0000BD4DBF80010A5
:1013B00041F08051CBF80010DBF80000012700F06D
:1013C000805000906B4E3068C00510D4306840F4F7
:1013D00080703060FFF7B2FD009005E0FFF7AEFDD2
:1013E0000099401A022850D83068C005F6D55E4EE4
:1013F000A0686C3601280FD00528306810D020F086
:1014000001003060306820F004003060A068B8B19E
:10141000FFF794FD00900FE0306840F00100F4E722
:1014200040F004003060F7E7FFF788FD0099411AAB
:1014300041F28830814266D830688007F4D50EE0EA
:10144000FFF77CFD009007E0FFF778FD0099411A57
:1014500041F28830814256D830688007F4D42FB1E9
:10146000DBF8001021F08051CBF80010A069C8B360
:101470003D49091D0968C1F3810102294AD00228AA
:10148000504607D0C8F8600000E03CE0FFF756FD8A
:1014900004463BE04746C8F86000FFF74FFD0646AC
:1014A00005E000BFFFF74AFD801B02282BD8286803
:1014B0008001F7D4D4E907010843A16A2E4A4908FC
:1014C00002EB0141626A41EA8211084394F82C1050
:1014D00040EA0161C9F8001001203866FFF72EFDCF
:1014E000044606E03EE000BFFFF728FD001B02288F
:1014F00009D828688001F7D534E000BFFFF71EFD4A
:10150000001B022802D90320BDE8F88F286880015B
:10151000F4D427E00128F7D0D9F80000E26900F4FC
:10152000800191421CD1226A00F03F01914217D103
:1015300047F6C071626A0140B1EB821F10D1A26A06
:101540004FF0FF3300F4403103EB5202B1EB024F96
:1015500006D194F82C1000F07060B0EB016F01D050
:101560000120D1E70020CFE70438024000004742C5
:10157000800E4742007000400000FFFF704770B5CA
:10158000040009D0606A002540B125616561A5624B
:1015900094F8510040B10CE0012070BD6068B0F5D6
:1015A000827FF4D0E561F2E784F85050204600F0E5
:1015B00045F8022084F851002068016821F04001BC
:1015C0000160A088218900F4827001F4044108437D
:1015D000A18901F400610843217C01F00201084364
:1015E000217D01F001010843218B01F400710843C2
:1015F000217F01F03801084394F8201001F08001A8
:101600000843218D01F40051084321680860A06956
:10161000042101EA104094F8241001F0100108435D
:10162000216848602068C16921F40061C161656575
:10163000012084F85100002070BD000070B586B014
:10164000064614216846FEF7A8FE1F493068884206
:1016500038D11E480025016841F4805101600068BE
:1016600000F48050059019481438016841F00101D8
:1016700001600068694600F001000590A02000901C
:101680000220CDE9010503200390052004901048B5
:10169000FFF75CFB104C0F4820604FF0C0606060AB
:1016A0004020C4E902050001C4E90405A561E56123
:1016B000256220466562FFF7A7FA08B1FFF7D2F965
:1016C000B464A66306B070BD0030014044380240E7
:1016D0000000024058640240440A002070B50446ED
:1016E00090F850000026012809D0012084F850000D
:1016F00094F851000025012803D002264AE0022078
:1017000070BD89B182B1032084F851006565216301
:10171000A286E286A56365642564A587E587A0683F
:10172000B0F5004F02D00BE0012633E020680168DD
:1017300021F0400101602068016841F480410160AE
:10174000A16C16480864A16C1548C863A16C1548C3
:10175000C864A06C0565E38E2268216B0C32A06C16
:10176000FFF7BCFA20B1606D40F010006065DBE768
:1017700020680168490603D4016841F04001016016
:101780002068416841F0200141602068416841F0D3
:101790000201416084F85050304670BDE11C0008E1
:1017A000EB1C0008BF1C00087047704710B5401EB6
:1017B000B0F1807F01D3012010BD4FF0E0246061C3
:1017C0000F21601700F0B3FF0020A0610720206107
:1017D000002010BD7047704770B590F83C20012A7A
:1017E00032D0012480F83C40022280F83D2003687A
:1017F0005A689D6822F070060A6832435A60134B9B
:1018000002689A4214D0B2F1804F11D0104B9A4224
:101810000ED0104B9A420BD00F4B9A4208D00F4B70
:101820009A4205D00E4B9A4202D00E4B9A4204D1F6
:10183000496825F080031943916080F83D400021FC
:1018400080F83C10084670BD022070BD00000140C9
:101850000004004000080040000C0040000401406B
:10186000004001400018004010B5040003D094F877
:101870003D0010B107E0012010BD002084F83C00BD
:10188000204600F01FF8022084F83D00211D20684A
:1018900000F04CFB012084F8460084F83E0084F8F8
:1018A0003F0084F8400084F8410084F8420084F846
:1018B000430084F8440084F8450084F83D0000208B
:1018C00010BD000008B500680B49884212D10B48D2
:1018D000016841F0020101600068002200F002008E
:1018E000009011461D20FFF797FBBDE808401D2022
:1018F000FFF784BB08BD00000004004040380240F0
:1019000090F83D10012901D001207047022180F894
:101910003D100168CA6842F00102CA6000681149BE
:10192000884214D0B0F1804F11D00F4988420ED0B8
:101930000E4988420BD00E49884208D00D49884292
:1019400005D00D49884202D00C49884204D18168F3
:1019500001F00701062903D0016841F0010101608F
:1019600000207047000001400004004000080040D3
:10197000000C0040000401400040014000180040FD
:1019800070B5044690F83C000025012817D00126C8
:1019900084F83C60022084F83D002068826822F0D0
:1019A000770222F47F4282600868502838D00DDC2C
:1019B00020284FD005DC90B3102811D14AE0022036
:1019C00070BD302846D040280AD13BE060282FD097
:1019D00070280DD0B0F5805F03D0B0F5005F12D055
:1019E000012584F83D60002084F83C00284670BD45
:1019F000CB68D1E90121206800F004FB20688168F0
:101A000041F0770109E0CB68D1E90121206800F0BD
:101A1000F9FA2068816841F480418160E1E719E0CA
:101A2000CA684968206800F0FFFA5021206806E083
:101A3000CA684968206800F008FB6021206800F04F
:101A4000EBFACEE7CA684968206800F0EDFA402159
:101A50002068F4E7226801461046F0E770472DE958
:101A6000F04104460068C66805694FF00007A90701
:101A700013D5B10711D5F91E016101202077206827
:101A800080698007204602D0FFF7E8FF04E000F0FD
:101A90007EF8204600F07CF82777680716D5700797
:101AA00014D521686FF004000861022020772068B7
:101AB000806910F4407F204602D0FFF7CFFF04E09A
:101AC00000F065F8204600F063F82777280715D561
:101AD000300713D521686FF00800086104202077D3
:101AE0002068C0698007204602D0FFF7B7FF04E0F6
:101AF00000F04DF8204600F04BF82777E80616D5A1
:101B0000F00614D521686FF01000086108202077D6
:101B10002068C06910F4407F204602D0FFF79EFF86
:101B200004E000F034F8204600F032F82777E807A8
:101B300008D0F00706D021686FF001000861204648
:101B400000F028F8280608D5300606D521686FF081
:101B5000800008612046FFF73DFE680608D5700644
:101B600006D521686FF040000861204600F01EF89D
:101B7000A8060AD5B00608D521686FF020000861D4
:101B80002046BDE8F041FFF726BEBDE8F081704772
:101B9000704700000349884203D103490888401C6C
:101BA00008807047A40A0020040000207047FEE768
:101BB000094808B5016841F480010160006800220D
:101BC00000F48000009011463B20FFF725FABDE8A5
:101BD00008403B20FFF712BA30380240094808B5E8
:101BE000016841F080010160016801F0800100910D
:101BF000016841F001010160006800F001000090FF
:101C000008BD000030380240104810B50E49016090
:101C10004FF482714160002181600122C160C0E9FE
:101C20000412520282611822C0E9072141628162D6
:101C30000A21C162FFF7A3FC002803D0BDE81040D1
:101C4000FEF710BF10BD000000300140EC0900207D
:101C500010B586B0002417480094019402940394B0
:101C600004941349059401605321C0E9011440F222
:101C7000E731C0E9031480218161FFF7F5FD08B168
:101C8000FEF7F0FE4FF48050009069460948FFF7D8
:101C900077FE08B1FEF7E6FE049404A90548059412
:101CA000FFF79AFD002801D0FEF7DCFE06B010BD5C
:101CB00000040040A40A0020FEE7FEE7704710B5CC
:101CC000806B01684A6822F003024A60416D41F06E
:101CD00010014165012180F85110FFF74FFC10BD44
:101CE00010B5806BFFF761FD10BD38B50546846BFC
:101CF000FFF724F9024628680068C00523D420684D
:101D0000416821F0200141602068416821F0020112
:101D100041606421204600F01BF818B1606D40F06E
:101D200020006065A068002118B92068C26880683A
:101D30000090E186012084F85100606D18B12046C2
:101D4000FFF71CFC38BD2046FFF72EFD38BD000014
:101D5000F8B515460E460B460092044601220221B4
:101D600000F02CF8A0B9134813490068B0FBF1F05B
:101D70004FF47A71484300906068B0F5827F0DD1CE
:101D80003346002280212046009500F017F870B1FC
:101D9000606D40F0200060650320F8BD009830B110
:101DA000401E009020688068C0430006F6D50020E1
:101DB000F8BD00001400002000366E012DE9F84344
:101DC0001E46914688460446089DFFF7B7F8401B1B
:101DD000351AFFF7B3F8074625480068C0F3CB3043
:101DE000684338E0701C37D0FFF7A8F8C01BA84242
:101DF00003D215B1009860B32CE02068416821F04F
:101E0000E00141606068B0F5827F0BD1A068B0F559
:101E1000004F02D0B0F5806F04D12068016821F036
:101E200040010160A06AB0F5005F09D12068016837
:101E300021F4005101602068016841F40051016003
:101E4000012084F85100002084F850000320BDE8F0
:101E5000F8830025401E00902068816838EA010060
:101E600004D000214945BDD10020F0E70121F9E768
:101E7000140000207047FFF767B8000030B593B03A
:101E800030216846FEF789FA14210CA8FEF785FA7E
:101E90001D480025016841F080510160006800F094
:101EA000805011901948016841F480410160006838
:101EB000022400F48040119001200390102004902F
:101EC000009406940820CDE90750A820CDE9090424
:101ED00004200B906846FFF79BF908B172B6FEE745
:101EE0000CA90F2081E831004FF4A0500F904FF45F
:101EF0008050109005210CA8FFF7C0F8002801D0F1
:101F000072B6FEE713B030BD4038024000700040AA
:101F10000248016841F470010160704788ED00E0FB
:101F20000148FFF79CBD0000A40A0020F0B502683C
:101F3000294C2A4D2A4E2B4F2B4B4FF0804CA04260
:101F400009D0604507D0A84205D0B04203D0B842BE
:101F500001D0984204D122F0700E4A6842EA0E0283
:101F6000A0421BD0604519D0A84217D0B04215D06E
:101F7000B84213D0984211D01C4DA8420ED01C4D2F
:101F8000A8420BD01B4DA84208D01B4DA84205D03B
:101F90001A4DA84202D01A4DA84203D122F440752E
:101FA000CA682A434D6922F080022A4302608A6887
:101FB000C2620A688262A04201D0984201D10969D6
:101FC0000163012141610169C90703D0016921F061
:101FD00001010161F0BD000000000140000400406B
:101FE00000080040000C0040000401400040014097
:101FF000004401400048014000180040001C00401F
:102000000020004010B5846842EA032224F47F4493
:102010000A432243826010BD826822F070020A43A4
:1020200042F007018160704710B5036A046A24F02A
:1020300001040462846924F0F00444EA021423F0E9
:102040000A020A438461026210BD10B5036A046A81
:1020500024F010040462846923F0A00324F4704483
:1020600044EA023243EA01118261016210BD0000BC
:10207000044C00252088AA28FCD300F069FB2580A9
:10208000F8E7000004000020FEE72DE9F04F0023F0
:102090008B4682461A4602EB420000210BEBC0063B
:1020A000002001EB4105741903EB43096778C74031
:1020B000FF0701D0FC2700E0C0274FEA570CC0EB18
:1020C000C90808EB0A0787F807C016F805C02CFAFC
:1020D00000FC5FEACC7C02D04FF0FC0C01E04FF03A
:1020E000C00C4FEA5C0C87F80FC094F802C02CFAC1
:1020F00000FC5FEACC7C02D04FF0FC0C01E04FF01A
:10210000C00C4FEA5C0C401C87F817C00828CDDBD8
:10211000491C5B1C0829C3DB521C082ABBDBBDE839
:10212000F08F00002DE9FF4F83B00120DDE910158D
:10213000022703263039129C4FF004084FF0050B9C
:102140004FF0060A4FF007090A297CD2DFE801F0B8
:102150000533395F87A7B9E7FBF9CDE900050DF134
:102160000C09029499E80F0000F061F90097CDE99D
:10217000015499E80F0000F05AF90096CDE9015496
:1021800099E80F0000F053F9CDF80080CDE9015433
:1021900099E80F0000F04BF9CDF800B0CDE90154FB
:1021A00099E80F0000F043F9CDF800A0CDE9015403
:1021B00099E80F0036E10097CDE901540DF10C08C4
:1021C000B9E0CDE9000503AE029496E80F0000F0F7
:1021D0002EF90097CDE9015496E80F0000F027F999
:1021E000CDF80090CDE9015496E80F0000F01FF9FA
:1021F000CDF80080CDE9015496E80F0000F017F902
:10220000CDF800B0CDE9015496E80F000AE1CDE920
:1022100000050DF10C0A02949AE80F0000F007F98E
:102220000097CDE901549AE80F0000F000F90096FC
:10223000CDE901549AE80F0000F0F9F8CDF80080DC
:10224000CDE9015400E0EFE09AE80F0000F0EFF86C
:10225000CDF80090CDE901549AE80F00E2E0009734
:10226000CDE901540DF10C0898E80F0000F0DFF8FB
:102270000096CDE9015498E80F0000F0D8F8CDF8A9
:1022800000A0CDE9015498E80F0000F0D0F8CDF897
:10229000009000BFCDE9015498E80F00C2E0CDE9FD
:1022A000000503AF029497E80F0000F0C0F8009615
:1022B000CDE9015497E80F0000F0B9F8CDF800809F
:1022C00018E0CDE9000503AF029497E80F0000F095
:1022D000AEF80096CDE9015497E80F0000F0A7F89A
:1022E000CDF80080CDE9015497E80F0000F09FF889
:1022F000CDF800B0CDE9015497E80F0000F097F851
:10230000CDF800A0CDE9015497E80F0000F08FF858
:10231000CDF80090CDE9015497E80F0082E0CDE9B7
:1023200000050DF10C08029498E80F0000F07FF80A
:102330000097CDE9015498E80F0000F078F8009676
:10234000A8E742E0FFE7CDE900050DF10C0C02948F
:102350009CE80F0000F06BF80097CDE901540DF1F7
:102360000C0C9CE80F0000F062F80096CDE90154D7
:102370000DF10C0C9CE80F0000F059F8CDF800802E
:10238000CDE901540DF10C0C9CE80F0000F04FF862
:10239000CDF800B0CDE901540DF10C0C9CE80F0014
:1023A00000F045F8CDF800A0CDE901540DF10C0C7A
:1023B0009CE80F0000F03BF8CDF80090CDE9015407
:1023C0000DF10C0C9CE80F002CE0CDE900050DF19F
:1023D0000C0B02949BE80F0000F029F80097CDE960
:1023E00001549BE80F0000F022F80096CDE901545B
:1023F0009BE80F0000F01BF8CDF80080CDE90154F8
:102400009BE80F0000F013F8CDF800A0CDE90154CF
:102410009BE80F0000F00BF8CDF80090CDE90154D7
:102420009BE80F0000F003F807B0BDE8F08FFEB5A1
:102430000C46DDE909168DF808408DF80920089F43
:10244000321D8DF80A30CC1C8D1D02AB92B2082FC4
:1024500026D2DFE807F02504080C11161A1ECDE974
:1024600000230B4619E0CDE90023A3B216E0CDE925
:102470000023ABB2A1B211E0CDE90023ABB2A9B207
:102480000BE0CDE90063ABB206E0CDE90063A3B297
:1024900003E0CDE90023A3B2A1B2324600F0BAFABC
:1024A000FEBD2DE9FC41074608981C4615460E4620
:1024B00000285FD001287ED002287DD0032857D184
:1024C000CDE900540B4605220821384600F020F9DA
:1024D000CDE90054334604220721384600F018F9AC
:1024E000CDE90054334606220721384600F010F9A2
:1024F000CDE90054334603220621384600F008F99E
:10250000072233460621CDE90054384600F000F991
:10251000CDE90054334605220221384600F0F8F890
:10252000CDE90054334605220321384600F0F0F887
:10253000CDE90054334605220421384600F0E8F87E
:10254000CDE90054052233461146384600F0E0F844
:10255000CDE90054334605220621384600F0D8F86C
:10256000052233460721CDE90054384600F0D0F863
:10257000BDE8FC81CDE900540B4601220521384617
:1025800000F0C6F8CDE90054334602220421384653
:1025900000F0BEF8CDE90054334602220621384649
:1025A00000F0B6F8CDE90054032233461146384610
:1025B00000F0AEF801E033E086E0CDE900543346A8
:1025C00003220721384600F0A3F8CDE90054334632
:1025D00002220521384600F09BF8CDE9005433462D
:1025E00003220521384600F093F8CDE90054334624
:1025F00004220521384600F08BF8CDE9005405226D
:1026000033461146384600F083F8CDE9005433468E
:1026100006220521384600F07BF83346072251E0B8
:10262000CDE900540B4608220521384600F070F829
:10263000CDE90054334607220421384600F068F8FB
:10264000CDE90054334607220621384600F060F8F1
:10265000CDE90054334606220321384600F058F8ED
:10266000CDE90054334606220721384600F050F8E1
:10267000CDE90054334607220521384600F048F8DA
:10268000CDE90054334606220521384600F040F8D3
:10269000CDE90054052233461146384600F038F89B
:1026A000CDE90054334604220521384600F030F8C5
:1026B000CDE90054334603220521384600F028F8BE
:1026C0003346022205214EE7CDE900540B46052290
:1026D0000121384600F01CF8CDE9005433460422AD
:1026E0000221384600F014F8CDE9005433460622A2
:1026F0000221384600F00CF8CDE90054032233469D
:102700001146384600F004F8072233460321FAE662
:1027100030B501EB410100EBC100DDE9034502EBFF
:102720004201084400F81B3D4470857030BD090724
:10273000090E002804DB00F1E02080F80014704747
:1027400000F00F0000F1E02080F8141D7047000039
:10275000FEB52D4A0120322102F8C00F2B4E5170D8
:102760002A4F86F8C310C63706F8C20F022287F830
:10277000C220642187F8C310254900254C1E0D7026
:102780004D708D7021780091CDE901200A236422DB
:1027900014211D48FFF7C6FC11230A223221A7F29B
:1027A0004A200095FFF77DFE39460022A1F24A201B
:1027B00000F056F803221549134800F051F8B0789C
:1027C000C23EC00704D02078401C207086F8C45058
:1027D0002078392801D9302020700C4A0C4BC23A9D
:1027E000B11CB81CFDF73EFE08490A48C239FFF784
:1027F0004CFC0848FEF728F903B0C221BDE8F040C0
:102800000148FDF7A8BD0000180000205E0200206E
:1028100001000020EA03002002780B789A4209D1D7
:1028200042784B789A4205D180788978884201D1E4
:102830000120704700207047FEF78EFBFFF71EFB5C
:10284000FFF7CCF9FFF7B4F9FFF7DEF9FFF700FA6D
:102850000248FFF755F8FFF70BFCFEE7A40A00203B
:10286000F0B500260124A2B30725012A68D0022A68
:102870007DD0032A7CD1072303EB4306002201EB22
:10288000C60600BF02EB42073744521C37F816CC8D
:10289000A7F802C017F814CCD2B287F804C0082AEF
:1028A000F0D35B1E13F0FF03E6D10022B1F9003034
:1028B00003EB430300EBC30602EB42031E440B444D
:1028C00037885F80521CB678D2B21E71082AEDD3C9
:1028D00067E0FFE70023002203EB430702EB42051A
:1028E00001EBC5053D44521CB5F805C0A5F802C072
:1028F00095F807C0D2B285F804C0082AEED35B1C55
:10290000DBB2072BE7D3002202EB4203B1F90070E0
:1029100000EBC30507EB47073D4401EBC3032F88DA
:10292000A3F81770521CAD78D2B25D76082AEBD3AB
:102930000888401C00B2088007283BDD0E8037E085
:102940000723002203EB430702EB420601EBC60616
:102950003E44521C36F801CCA6F802C096F801C0DD
:10296000D2B286F804C0082AEED35B1E01E022E052
:1029700020E013F0FF03E4D15FF0000202EB42031A
:10298000B1F9007000EBC30607EB47073E4401EBCB
:10299000C30337885F80521CB678D2B21E71082AF2
:1029A000ECD30888401E00B20880002802DA0D80AF
:1029B00081F8C440F0BD002303EB4305002201EB86
:1029C000C50700BF02EB42053D44521CB5F81AC0D2
:1029D000A5F802C095F81CC0D2B285F804C0082A38
:1029E000F0D35B1CDBB2072BE6D30022B1F9003039
:1029F00003EB430300EBC30502EB42031D440B440E
:102A00002F8823F8AA7F521CAD78D2B29D70082A75
:102A1000ECD38DE72DE9FC478246DDE90A671D46C8
:102A20009146581A21D4B6EB09001ED4082D00D9BE
:102A30000825082E00D90826C8B213E009F0FF04C3
:102A40000BE0B9787878CDE900013B782246414621
:102A50005046FFF75DFE641CE4B2B442F1D908F1C0
:102A60000100C0B28046A842E8D9BDE8FC874FF01B
:102A70004070E1EE100A70470006101600061016AE
:102A8000000000000000000001020304060708091E
:102A9000B02A00080000002018000000C40100084F
:102AA000C82A00081800002038110000E0010008C2
:102AB00030000000000000000100000010000000D5
:082AC000000000000024F400F6
:040000050800018965
:00000001FF
